{
  "contracts/MyFirstContract.sol": {
    "MyFirstContract": {
      "abi": [
        {
          "inputs": [],
          "name": "greetings",
          "outputs": [
            {
              "internalType": "string",
              "name": "",
              "type": "string"
            }
          ],
          "stateMutability": "view",
          "type": "function"
        },
        {
          "inputs": [
            {
              "internalType": "address",
              "name": "_receiver",
              "type": "address"
            },
            {
              "internalType": "uint256",
              "name": "amount",
              "type": "uint256"
            }
          ],
          "name": "transfer",
          "outputs": [],
          "stateMutability": "payable",
          "type": "function"
        },
        {
          "inputs": [
            {
              "internalType": "string",
              "name": "_greetings",
              "type": "string"
            }
          ],
          "name": "updateGreeting",
          "outputs": [
            {
              "internalType": "string",
              "name": "",
              "type": "string"
            }
          ],
          "stateMutability": "nonpayable",
          "type": "function"
        }
      ],
      "evm": {
        "bytecode": {
          "linkReferences": {},
          "object": "6080806040523460bf57600054600181811c9116801560b6575b602082101460a057601f8111605a575b507f48656c6c6f20536f6c696469747900000000000000000000000000000000001c6000556104c390816100c58239f35b60008052601f0160051c7f290decd9548b62a8d60345a988386fc84ba6bc95484008f6362f93160ef3e563908101905b818110609557506029565b60008155600101608a565b634e487b7160e01b600052602260045260246000fd5b90607f16906019565b600080fdfe6080604052600436101561001257600080fd5b60003560e01c80632867cc4414610141578063a9059cbb1461006e5763acb34ce81461003d57600080fd5b34610069576000366003190112610069576100656100596103c8565b60405191829182610345565b0390f35b600080fd5b6040366003190112610069576004356001600160a01b038116810361006957602435908134111561010e57600080809381935af13d15610109573d6100b281610329565b906100c06040519283610307565b8152600060203d92013e5b156100d257005b60405162461bcd60e51b815260206004820152600f60248201526e151c985b9cd9995c8819985a5b1959608a1b6044820152606490fd5b6100cb565b60405162461bcd60e51b815260206004820152600b60248201526a4e6f7420456e6f7567682160a81b6044820152606490fd5b346100695760203660031901126100695760043567ffffffffffffffff8111610069573660238201121561006957806004013561017d81610329565b9161018b6040519384610307565b818352366024838301011161006957816000926024602093018386013783010152805167ffffffffffffffff81116102f1576101c860005461038e565b601f8111610285575b50602091601f82116001146102175791819260009261020c575b50508160011b916000199060031b1c1916176000555b6100656100596103c8565b0151905082806101eb565b601f198216926000805260008051602061046e8339815191529160005b85811061026d57508360019510610254575b505050811b01600055610201565b015160001960f88460031b161c19169055828080610246565b91926020600181928685015181550194019201610234565b60008052601f820160051c60008051602061046e8339815191520190602083106102db575b601f0160051c60008051602061046e83398151915201905b8181106102cf57506101d1565b600081556001016102c2565b60008051602061046e83398151915291506102aa565b634e487b7160e01b600052604160045260246000fd5b90601f8019910116810190811067ffffffffffffffff8211176102f157604052565b67ffffffffffffffff81116102f157601f01601f191660200190565b91909160208152825180602083015260005b818110610378575060409293506000838284010152601f8019910116010190565b8060208092870101516040828601015201610357565b90600182811c921680156103be575b60208310146103a857565b634e487b7160e01b600052602260045260246000fd5b91607f169161039d565b60405190600082600054916103dc8361038e565b808352926001811690811561044e5750600114610402575b61040092500383610307565b565b506000808052909160008051602061046e8339815191525b818310610432575050906020610400928201016103f4565b602091935080600191548385890101520191019091849261041a565b6020925061040094915060ff191682840152151560051b8201016103f456fe290decd9548b62a8d60345a988386fc84ba6bc95484008f6362f93160ef3e563a26469706673582212209fe5ab72f858557a90a4dcdb9e2d4f7953eb7dcb452c9163b2050c95cd553a8c64736f6c634300081c0033",
          "opcodes": "PUSH1 0x80 DUP1 PUSH1 0x40 MSTORE CALLVALUE PUSH1 0xBF JUMPI PUSH1 0x0 SLOAD PUSH1 0x1 DUP2 DUP2 SHR SWAP2 AND DUP1 ISZERO PUSH1 0xB6 JUMPI JUMPDEST PUSH1 0x20 DUP3 LT EQ PUSH1 0xA0 JUMPI PUSH1 0x1F DUP2 GT PUSH1 0x5A JUMPI JUMPDEST POP PUSH32 0x48656C6C6F20536F6C696469747900000000000000000000000000000000001C PUSH1 0x0 SSTORE PUSH2 0x4C3 SWAP1 DUP2 PUSH2 0xC5 DUP3 CODECOPY RETURN JUMPDEST PUSH1 0x0 DUP1 MSTORE PUSH1 0x1F ADD PUSH1 0x5 SHR PUSH32 0x290DECD9548B62A8D60345A988386FC84BA6BC95484008F6362F93160EF3E563 SWAP1 DUP2 ADD SWAP1 JUMPDEST DUP2 DUP2 LT PUSH1 0x95 JUMPI POP PUSH1 0x29 JUMP JUMPDEST PUSH1 0x0 DUP2 SSTORE PUSH1 0x1 ADD PUSH1 0x8A JUMP JUMPDEST PUSH4 0x4E487B71 PUSH1 0xE0 SHL PUSH1 0x0 MSTORE PUSH1 0x22 PUSH1 0x4 MSTORE PUSH1 0x24 PUSH1 0x0 REVERT JUMPDEST SWAP1 PUSH1 0x7F AND SWAP1 PUSH1 0x19 JUMP JUMPDEST PUSH1 0x0 DUP1 REVERT INVALID PUSH1 0x80 PUSH1 0x40 MSTORE PUSH1 0x4 CALLDATASIZE LT ISZERO PUSH2 0x12 JUMPI PUSH1 0x0 DUP1 REVERT JUMPDEST PUSH1 0x0 CALLDATALOAD PUSH1 0xE0 SHR DUP1 PUSH4 0x2867CC44 EQ PUSH2 0x141 JUMPI DUP1 PUSH4 0xA9059CBB EQ PUSH2 0x6E JUMPI PUSH4 0xACB34CE8 EQ PUSH2 0x3D JUMPI PUSH1 0x0 DUP1 REVERT JUMPDEST CALLVALUE PUSH2 0x69 JUMPI PUSH1 0x0 CALLDATASIZE PUSH1 0x3 NOT ADD SLT PUSH2 0x69 JUMPI PUSH2 0x65 PUSH2 0x59 PUSH2 0x3C8 JUMP JUMPDEST PUSH1 0x40 MLOAD SWAP2 DUP3 SWAP2 DUP3 PUSH2 0x345 JUMP JUMPDEST SUB SWAP1 RETURN JUMPDEST PUSH1 0x0 DUP1 REVERT JUMPDEST PUSH1 0x40 CALLDATASIZE PUSH1 0x3 NOT ADD SLT PUSH2 0x69 JUMPI PUSH1 0x4 CALLDATALOAD PUSH1 0x1 PUSH1 0x1 PUSH1 0xA0 SHL SUB DUP2 AND DUP2 SUB PUSH2 0x69 JUMPI PUSH1 0x24 CALLDATALOAD SWAP1 DUP2 CALLVALUE GT ISZERO PUSH2 0x10E JUMPI PUSH1 0x0 DUP1 DUP1 SWAP4 DUP2 SWAP4 GAS CALL RETURNDATASIZE ISZERO PUSH2 0x109 JUMPI RETURNDATASIZE PUSH2 0xB2 DUP2 PUSH2 0x329 JUMP JUMPDEST SWAP1 PUSH2 0xC0 PUSH1 0x40 MLOAD SWAP3 DUP4 PUSH2 0x307 JUMP JUMPDEST DUP2 MSTORE PUSH1 0x0 PUSH1 0x20 RETURNDATASIZE SWAP3 ADD RETURNDATACOPY JUMPDEST ISZERO PUSH2 0xD2 JUMPI STOP JUMPDEST PUSH1 0x40 MLOAD PUSH3 0x461BCD PUSH1 0xE5 SHL DUP2 MSTORE PUSH1 0x20 PUSH1 0x4 DUP3 ADD MSTORE PUSH1 0xF PUSH1 0x24 DUP3 ADD MSTORE PUSH15 0x151C985B9CD9995C8819985A5B1959 PUSH1 0x8A SHL PUSH1 0x44 DUP3 ADD MSTORE PUSH1 0x64 SWAP1 REVERT JUMPDEST PUSH2 0xCB JUMP JUMPDEST PUSH1 0x40 MLOAD PUSH3 0x461BCD PUSH1 0xE5 SHL DUP2 MSTORE PUSH1 0x20 PUSH1 0x4 DUP3 ADD MSTORE PUSH1 0xB PUSH1 0x24 DUP3 ADD MSTORE PUSH11 0x4E6F7420456E6F75676821 PUSH1 0xA8 SHL PUSH1 0x44 DUP3 ADD MSTORE PUSH1 0x64 SWAP1 REVERT JUMPDEST CALLVALUE PUSH2 0x69 JUMPI PUSH1 0x20 CALLDATASIZE PUSH1 0x3 NOT ADD SLT PUSH2 0x69 JUMPI PUSH1 0x4 CALLDATALOAD PUSH8 0xFFFFFFFFFFFFFFFF DUP2 GT PUSH2 0x69 JUMPI CALLDATASIZE PUSH1 0x23 DUP3 ADD SLT ISZERO PUSH2 0x69 JUMPI DUP1 PUSH1 0x4 ADD CALLDATALOAD PUSH2 0x17D DUP2 PUSH2 0x329 JUMP JUMPDEST SWAP2 PUSH2 0x18B PUSH1 0x40 MLOAD SWAP4 DUP5 PUSH2 0x307 JUMP JUMPDEST DUP2 DUP4 MSTORE CALLDATASIZE PUSH1 0x24 DUP4 DUP4 ADD ADD GT PUSH2 0x69 JUMPI DUP2 PUSH1 0x0 SWAP3 PUSH1 0x24 PUSH1 0x20 SWAP4 ADD DUP4 DUP7 ADD CALLDATACOPY DUP4 ADD ADD MSTORE DUP1 MLOAD PUSH8 0xFFFFFFFFFFFFFFFF DUP2 GT PUSH2 0x2F1 JUMPI PUSH2 0x1C8 PUSH1 0x0 SLOAD PUSH2 0x38E JUMP JUMPDEST PUSH1 0x1F DUP2 GT PUSH2 0x285 JUMPI JUMPDEST POP PUSH1 0x20 SWAP2 PUSH1 0x1F DUP3 GT PUSH1 0x1 EQ PUSH2 0x217 JUMPI SWAP2 DUP2 SWAP3 PUSH1 0x0 SWAP3 PUSH2 0x20C JUMPI JUMPDEST POP POP DUP2 PUSH1 0x1 SHL SWAP2 PUSH1 0x0 NOT SWAP1 PUSH1 0x3 SHL SHR NOT AND OR PUSH1 0x0 SSTORE JUMPDEST PUSH2 0x65 PUSH2 0x59 PUSH2 0x3C8 JUMP JUMPDEST ADD MLOAD SWAP1 POP DUP3 DUP1 PUSH2 0x1EB JUMP JUMPDEST PUSH1 0x1F NOT DUP3 AND SWAP3 PUSH1 0x0 DUP1 MSTORE PUSH1 0x0 DUP1 MLOAD PUSH1 0x20 PUSH2 0x46E DUP4 CODECOPY DUP2 MLOAD SWAP2 MSTORE SWAP2 PUSH1 0x0 JUMPDEST DUP6 DUP2 LT PUSH2 0x26D JUMPI POP DUP4 PUSH1 0x1 SWAP6 LT PUSH2 0x254 JUMPI JUMPDEST POP POP POP DUP2 SHL ADD PUSH1 0x0 SSTORE PUSH2 0x201 JUMP JUMPDEST ADD MLOAD PUSH1 0x0 NOT PUSH1 0xF8 DUP5 PUSH1 0x3 SHL AND SHR NOT AND SWAP1 SSTORE DUP3 DUP1 DUP1 PUSH2 0x246 JUMP JUMPDEST SWAP2 SWAP3 PUSH1 0x20 PUSH1 0x1 DUP2 SWAP3 DUP7 DUP6 ADD MLOAD DUP2 SSTORE ADD SWAP5 ADD SWAP3 ADD PUSH2 0x234 JUMP JUMPDEST PUSH1 0x0 DUP1 MSTORE PUSH1 0x1F DUP3 ADD PUSH1 0x5 SHR PUSH1 0x0 DUP1 MLOAD PUSH1 0x20 PUSH2 0x46E DUP4 CODECOPY DUP2 MLOAD SWAP2 MSTORE ADD SWAP1 PUSH1 0x20 DUP4 LT PUSH2 0x2DB JUMPI JUMPDEST PUSH1 0x1F ADD PUSH1 0x5 SHR PUSH1 0x0 DUP1 MLOAD PUSH1 0x20 PUSH2 0x46E DUP4 CODECOPY DUP2 MLOAD SWAP2 MSTORE ADD SWAP1 JUMPDEST DUP2 DUP2 LT PUSH2 0x2CF JUMPI POP PUSH2 0x1D1 JUMP JUMPDEST PUSH1 0x0 DUP2 SSTORE PUSH1 0x1 ADD PUSH2 0x2C2 JUMP JUMPDEST PUSH1 0x0 DUP1 MLOAD PUSH1 0x20 PUSH2 0x46E DUP4 CODECOPY DUP2 MLOAD SWAP2 MSTORE SWAP2 POP PUSH2 0x2AA JUMP JUMPDEST PUSH4 0x4E487B71 PUSH1 0xE0 SHL PUSH1 0x0 MSTORE PUSH1 0x41 PUSH1 0x4 MSTORE PUSH1 0x24 PUSH1 0x0 REVERT JUMPDEST SWAP1 PUSH1 0x1F DUP1 NOT SWAP2 ADD AND DUP2 ADD SWAP1 DUP2 LT PUSH8 0xFFFFFFFFFFFFFFFF DUP3 GT OR PUSH2 0x2F1 JUMPI PUSH1 0x40 MSTORE JUMP JUMPDEST PUSH8 0xFFFFFFFFFFFFFFFF DUP2 GT PUSH2 0x2F1 JUMPI PUSH1 0x1F ADD PUSH1 0x1F NOT AND PUSH1 0x20 ADD SWAP1 JUMP JUMPDEST SWAP2 SWAP1 SWAP2 PUSH1 0x20 DUP2 MSTORE DUP3 MLOAD DUP1 PUSH1 0x20 DUP4 ADD MSTORE PUSH1 0x0 JUMPDEST DUP2 DUP2 LT PUSH2 0x378 JUMPI POP PUSH1 0x40 SWAP3 SWAP4 POP PUSH1 0x0 DUP4 DUP3 DUP5 ADD ADD MSTORE PUSH1 0x1F DUP1 NOT SWAP2 ADD AND ADD ADD SWAP1 JUMP JUMPDEST DUP1 PUSH1 0x20 DUP1 SWAP3 DUP8 ADD ADD MLOAD PUSH1 0x40 DUP3 DUP7 ADD ADD MSTORE ADD PUSH2 0x357 JUMP JUMPDEST SWAP1 PUSH1 0x1 DUP3 DUP2 SHR SWAP3 AND DUP1 ISZERO PUSH2 0x3BE JUMPI JUMPDEST PUSH1 0x20 DUP4 LT EQ PUSH2 0x3A8 JUMPI JUMP JUMPDEST PUSH4 0x4E487B71 PUSH1 0xE0 SHL PUSH1 0x0 MSTORE PUSH1 0x22 PUSH1 0x4 MSTORE PUSH1 0x24 PUSH1 0x0 REVERT JUMPDEST SWAP2 PUSH1 0x7F AND SWAP2 PUSH2 0x39D JUMP JUMPDEST PUSH1 0x40 MLOAD SWAP1 PUSH1 0x0 DUP3 PUSH1 0x0 SLOAD SWAP2 PUSH2 0x3DC DUP4 PUSH2 0x38E JUMP JUMPDEST DUP1 DUP4 MSTORE SWAP3 PUSH1 0x1 DUP2 AND SWAP1 DUP2 ISZERO PUSH2 0x44E JUMPI POP PUSH1 0x1 EQ PUSH2 0x402 JUMPI JUMPDEST PUSH2 0x400 SWAP3 POP SUB DUP4 PUSH2 0x307 JUMP JUMPDEST JUMP JUMPDEST POP PUSH1 0x0 DUP1 DUP1 MSTORE SWAP1 SWAP2 PUSH1 0x0 DUP1 MLOAD PUSH1 0x20 PUSH2 0x46E DUP4 CODECOPY DUP2 MLOAD SWAP2 MSTORE JUMPDEST DUP2 DUP4 LT PUSH2 0x432 JUMPI POP POP SWAP1 PUSH1 0x20 PUSH2 0x400 SWAP3 DUP3 ADD ADD PUSH2 0x3F4 JUMP JUMPDEST PUSH1 0x20 SWAP2 SWAP4 POP DUP1 PUSH1 0x1 SWAP2 SLOAD DUP4 DUP6 DUP10 ADD ADD MSTORE ADD SWAP2 ADD SWAP1 SWAP2 DUP5 SWAP3 PUSH2 0x41A JUMP JUMPDEST PUSH1 0x20 SWAP3 POP PUSH2 0x400 SWAP5 SWAP2 POP PUSH1 0xFF NOT AND DUP3 DUP5 ADD MSTORE ISZERO ISZERO PUSH1 0x5 SHL DUP3 ADD ADD PUSH2 0x3F4 JUMP INVALID 0x29 0xD 0xEC 0xD9 SLOAD DUP12 PUSH3 0xA8D603 GASLIMIT 0xA9 DUP9 CODESIZE PUSH16 0xC84BA6BC95484008F6362F93160EF3E5 PUSH4 0xA2646970 PUSH7 0x73582212209FE5 0xAB PUSH19 0xF858557A90A4DCDB9E2D4F7953EB7DCB452C91 PUSH4 0xB2050C95 0xCD SSTORE GASPRICE DUP13 PUSH5 0x736F6C6343 STOP ADDMOD SHR STOP CALLER "
        },
        "methodIdentifiers": {
          "greetings()": "acb34ce8",
          "transfer(address,uint256)": "a9059cbb",
          "updateGreeting(string)": "2867cc44"
        }
      }
    }
  }
}