{
  "contracts/LearningHub.sol": {
    "LearningHub": {
      "abi": [
        {
          "inputs": [],
          "stateMutability": "nonpayable",
          "type": "constructor"
        },
        {
          "anonymous": false,
          "inputs": [
            {
              "indexed": true,
              "internalType": "address",
              "name": "student",
              "type": "address"
            },
            {
              "indexed": false,
              "internalType": "uint256",
              "name": "coursesCompleted",
              "type": "uint256"
            },
            {
              "indexed": false,
              "internalType": "enum LearningHub.Badge",
              "name": "badge",
              "type": "uint8"
            }
          ],
          "name": "CourseCompleted",
          "type": "event"
        },
        {
          "anonymous": false,
          "inputs": [
            {
              "indexed": true,
              "internalType": "address",
              "name": "student",
              "type": "address"
            },
            {
              "indexed": false,
              "internalType": "string",
              "name": "name",
              "type": "string"
            }
          ],
          "name": "Enrolled",
          "type": "event"
        },
        {
          "anonymous": false,
          "inputs": [
            {
              "indexed": true,
              "internalType": "address",
              "name": "depositor",
              "type": "address"
            },
            {
              "indexed": false,
              "internalType": "uint256",
              "name": "amount",
              "type": "uint256"
            }
          ],
          "name": "FundsDeposited",
          "type": "event"
        },
        {
          "anonymous": false,
          "inputs": [
            {
              "indexed": true,
              "internalType": "address",
              "name": "owner",
              "type": "address"
            },
            {
              "indexed": false,
              "internalType": "uint256",
              "name": "amount",
              "type": "uint256"
            }
          ],
          "name": "FundsWithdrawn",
          "type": "event"
        },
        {
          "inputs": [],
          "name": "FundDapp",
          "outputs": [],
          "stateMutability": "payable",
          "type": "function"
        },
        {
          "inputs": [],
          "name": "completeCourse",
          "outputs": [],
          "stateMutability": "nonpayable",
          "type": "function"
        },
        {
          "inputs": [
            {
              "internalType": "string",
              "name": "_name",
              "type": "string"
            },
            {
              "internalType": "uint8",
              "name": "_age",
              "type": "uint8"
            }
          ],
          "name": "enroll",
          "outputs": [],
          "stateMutability": "nonpayable",
          "type": "function"
        },
        {
          "inputs": [
            {
              "internalType": "address",
              "name": "_student",
              "type": "address"
            }
          ],
          "name": "getStudentDetails",
          "outputs": [
            {
              "internalType": "string",
              "name": "",
              "type": "string"
            },
            {
              "internalType": "uint8",
              "name": "",
              "type": "uint8"
            },
            {
              "internalType": "enum LearningHub.Badge",
              "name": "",
              "type": "uint8"
            },
            {
              "internalType": "uint256",
              "name": "",
              "type": "uint256"
            }
          ],
          "stateMutability": "view",
          "type": "function"
        },
        {
          "inputs": [],
          "name": "greetings",
          "outputs": [
            {
              "internalType": "string",
              "name": "",
              "type": "string"
            }
          ],
          "stateMutability": "view",
          "type": "function"
        },
        {
          "inputs": [],
          "name": "owner",
          "outputs": [
            {
              "internalType": "address",
              "name": "",
              "type": "address"
            }
          ],
          "stateMutability": "view",
          "type": "function"
        },
        {
          "inputs": [
            {
              "internalType": "address",
              "name": "",
              "type": "address"
            }
          ],
          "name": "students",
          "outputs": [
            {
              "internalType": "string",
              "name": "name",
              "type": "string"
            },
            {
              "internalType": "uint8",
              "name": "age",
              "type": "uint8"
            },
            {
              "internalType": "enum LearningHub.Badge",
              "name": "badge",
              "type": "uint8"
            },
            {
              "internalType": "uint256",
              "name": "coursesCompleted",
              "type": "uint256"
            }
          ],
          "stateMutability": "view",
          "type": "function"
        },
        {
          "inputs": [
            {
              "internalType": "address",
              "name": "_receiver",
              "type": "address"
            },
            {
              "internalType": "uint256",
              "name": "amount",
              "type": "uint256"
            }
          ],
          "name": "transfer",
          "outputs": [],
          "stateMutability": "payable",
          "type": "function"
        },
        {
          "inputs": [
            {
              "internalType": "string",
              "name": "_greetings",
              "type": "string"
            }
          ],
          "name": "updateGreeting",
          "outputs": [
            {
              "internalType": "string",
              "name": "",
              "type": "string"
            }
          ],
          "stateMutability": "nonpayable",
          "type": "function"
        },
        {
          "inputs": [
            {
              "internalType": "uint256",
              "name": "_amount",
              "type": "uint256"
            }
          ],
          "name": "withdrawFunding",
          "outputs": [],
          "stateMutability": "nonpayable",
          "type": "function"
        }
      ],
      "evm": {
        "bytecode": {
          "linkReferences": {},
          "object": "6080806040523460d157600054600181811c9116801560c8575b602082101460b257601f8111606c575b507f48656c6c6f20536f6c696469747900000000000000000000000000000000001c600055600380546001600160a01b03191633179055610c8990816100d78239f35b60008052601f0160051c7f290decd9548b62a8d60345a988386fc84ba6bc95484008f6362f93160ef3e563908101905b81811060a757506029565b60008155600101609c565b634e487b7160e01b600052602260045260246000fd5b90607f16906019565b600080fdfe6080604052600436101561001257600080fd5b60003560e01c80632867cc44146108205780632e18eaff146107915780633697f0551461066c5780636aaf09c7146103a05780637795a63c1461026e5780638da5cb5b14610245578063a6c807a9146101e9578063a9059cbb14610121578063acb34ce8146100f15763d0b371bd1461008a57600080fd5b346100ec5760203660031901126100ec576001600160a01b036100ab610a5c565b16600052600260205260406000206001810154906100e86100d0600283015492610b51565b9160405193849360ff808360081c1692169085610c00565b0390f35b600080fd5b346100ec5760003660031901126100ec576100e861010d610aac565b604051918291602083526020830190610a1b565b60403660031901126100ec57610135610a5c565b60243590813411156101b657600080809381935af13d156101b1573d61015a816109b8565b906101686040519283610996565b8152600060203d92013e5b1561017a57005b60405162461bcd60e51b815260206004820152600f60248201526e151c985b9cd9995c8819985a5b1959608a1b6044820152606490fd5b610173565b60405162461bcd60e51b815260206004820152600b60248201526a4e6f7420456e6f7567682160a81b6044820152606490fd5b346100ec5760203660031901126100ec576001600160a01b0361020a610a5c565b166000526002602052604060002061022181610b51565b6100e86002600184015493015460405193849360ff808360081c1692169085610c00565b346100ec5760003660031901126100ec576003546040516001600160a01b039091168152602090f35b346100ec5760003660031901126100ec5733600052600260205260406000206102978154610a72565b1561036457600281018054906001820180921161034e578181556102ed9160ff91600191600a81106103155750848201805461ff0019166103001790555b5493015460081c166040519283526020830190610bf3565b7fea95f19ea1b88aa433bc407a2d341ba796e6fb2eba8e87ec7412cb5292bbb80a60403392a2005b600581106103335750848201805461ff0019166102001790556102d5565b82116102d557848201805461ff0019166101001790556102d5565b634e487b7160e01b600052601160045260246000fd5b60405162461bcd60e51b815260206004820152601460248201527314dd1d59195b9d081b9bdd08195b9c9bdb1b195960621b6044820152606490fd5b346100ec5760403660031901126100ec5760043567ffffffffffffffff81116100ec576103d19036906004016109d4565b60243560ff81168091036100ec578151156106305780156105eb57604051906080820182811067ffffffffffffffff8211176105d5576040528282526020820190815260408201600081526060830190600082523360005260026020526040600020935180519067ffffffffffffffff82116105d55781906104538754610a72565b601f8111610582575b50602090601f831160011461051d57600092610512575b50508160011b916000199060031b1c19161784555b60ff6001850193511660ff19845416178355519160048310156104fc5760029261ff0082549160081b169061ff001916179055519101557faff7cc483474af47a4f10a113769fab99ab00b1db774daa5d77669eb7d70860460405160208152806104f733946020830190610a1b565b0390a2005b634e487b7160e01b600052602160045260246000fd5b015190508780610473565b60008881528281209350601f198516905b81811061056a5750908460019594939210610551575b505050811b018455610488565b015160001960f88460031b161c19169055878080610544565b9293602060018192878601518155019501930161052e565b909150866000526020600020601f840160051c810191602085106105cb575b90601f859493920160051c01905b8181106105bc575061045c565b600081558493506001016105af565b90915081906105a1565b634e487b7160e01b600052604160045260246000fd5b60405162461bcd60e51b815260206004820152601a60248201527f416765206d7573742062652067726561746572207468616e20300000000000006044820152606490fd5b60405162461bcd60e51b81526020600482015260146024820152734e616d652063616e6e6f7420626520656d70747960601b6044820152606490fd5b346100ec5760203660031901126100ec57600354600435906001600160a01b03163381900361073d5747821161070157600080808481948282156106f8575bf1156106ec576003546040519182526001600160a01b0316907feaff4b37086828766ad3268786972c0cd24259d4c87a80f9d3963a3c3d999b0d90602090a2005b6040513d6000823e3d90fd5b506108fc6106ab565b60405162461bcd60e51b8152602060048201526014602482015273496e73756666696369656e742062616c616e636560601b6044820152606490fd5b60405162461bcd60e51b815260206004820152602660248201527f4f6e6c7920746865206f776e65722063616e20706572666f726d20746869732060448201526530b1ba34b7b760d11b6064820152608490fd5b60003660031901126100ec5734156107d1576040513481527f543ba50a5eec5e6178218e364b1d0f396157b3c8fa278522c2cb7fd99407d47460203392a2005b60405162461bcd60e51b815260206004820152602160248201527f4465706f736974206d7573742062652067726561746572207468616e207a65726044820152606f60f81b6064820152608490fd5b346100ec5760203660031901126100ec5760043567ffffffffffffffff81116100ec576108519036906004016109d4565b805167ffffffffffffffff81116105d55761086d600054610a72565b601f811161092a575b50602091601f82116001146108bc579181926000926108b1575b50508160011b916000199060031b1c1916176000555b6100e861010d610aac565b015190508280610890565b601f1982169260008052600080516020610c348339815191529160005b858110610912575083600195106108f9575b505050811b016000556108a6565b015160001960f88460031b161c191690558280806108eb565b919260206001819286850151815501940192016108d9565b60008052601f820160051c600080516020610c34833981519152019060208310610980575b601f0160051c600080516020610c3483398151915201905b8181106109745750610876565b60008155600101610967565b600080516020610c34833981519152915061094f565b90601f8019910116810190811067ffffffffffffffff8211176105d557604052565b67ffffffffffffffff81116105d557601f01601f191660200190565b81601f820112156100ec578035906109eb826109b8565b926109f96040519485610996565b828452602083830101116100ec57816000926020809301838601378301015290565b919082519283825260005b848110610a47575050826000602080949584010152601f8019910116010190565b80602080928401015182828601015201610a26565b600435906001600160a01b03821682036100ec57565b90600182811c92168015610aa2575b6020831014610a8c57565b634e487b7160e01b600052602260045260246000fd5b91607f1691610a81565b6040519060008260005491610ac083610a72565b8083529260018116908115610b325750600114610ae6575b610ae492500383610996565b565b5060008080529091600080516020610c348339815191525b818310610b16575050906020610ae492820101610ad8565b6020919350806001915483858901015201910190918492610afe565b60209250610ae494915060ff191682840152151560051b820101610ad8565b9060405191826000825492610b6584610a72565b8084529360018116908115610bd15750600114610b8a575b50610ae492500383610996565b90506000929192526020600020906000915b818310610bb5575050906020610ae49282010138610b7d565b6020919350806001915483858901015201910190918492610b9c565b905060209250610ae494915060ff191682840152151560051b82010138610b7d565b9060048210156104fc5752565b9060609295949360ff610c1e610c2f93608086526080860190610a1b565b971660208401526040830190610bf3565b015256fe290decd9548b62a8d60345a988386fc84ba6bc95484008f6362f93160ef3e563a2646970667358221220cb99e77346c18c9e1da25026c42e3411b630d4897935eb007521661180c5db2f64736f6c634300081c0033",
          "opcodes": "PUSH1 0x80 DUP1 PUSH1 0x40 MSTORE CALLVALUE PUSH1 0xD1 JUMPI PUSH1 0x0 SLOAD PUSH1 0x1 DUP2 DUP2 SHR SWAP2 AND DUP1 ISZERO PUSH1 0xC8 JUMPI JUMPDEST PUSH1 0x20 DUP3 LT EQ PUSH1 0xB2 JUMPI PUSH1 0x1F DUP2 GT PUSH1 0x6C JUMPI JUMPDEST POP PUSH32 0x48656C6C6F20536F6C696469747900000000000000000000000000000000001C PUSH1 0x0 SSTORE PUSH1 0x3 DUP1 SLOAD PUSH1 0x1 PUSH1 0x1 PUSH1 0xA0 SHL SUB NOT AND CALLER OR SWAP1 SSTORE PUSH2 0xC89 SWAP1 DUP2 PUSH2 0xD7 DUP3 CODECOPY RETURN JUMPDEST PUSH1 0x0 DUP1 MSTORE PUSH1 0x1F ADD PUSH1 0x5 SHR PUSH32 0x290DECD9548B62A8D60345A988386FC84BA6BC95484008F6362F93160EF3E563 SWAP1 DUP2 ADD SWAP1 JUMPDEST DUP2 DUP2 LT PUSH1 0xA7 JUMPI POP PUSH1 0x29 JUMP JUMPDEST PUSH1 0x0 DUP2 SSTORE PUSH1 0x1 ADD PUSH1 0x9C JUMP JUMPDEST PUSH4 0x4E487B71 PUSH1 0xE0 SHL PUSH1 0x0 MSTORE PUSH1 0x22 PUSH1 0x4 MSTORE PUSH1 0x24 PUSH1 0x0 REVERT JUMPDEST SWAP1 PUSH1 0x7F AND SWAP1 PUSH1 0x19 JUMP JUMPDEST PUSH1 0x0 DUP1 REVERT INVALID PUSH1 0x80 PUSH1 0x40 MSTORE PUSH1 0x4 CALLDATASIZE LT ISZERO PUSH2 0x12 JUMPI PUSH1 0x0 DUP1 REVERT JUMPDEST PUSH1 0x0 CALLDATALOAD PUSH1 0xE0 SHR DUP1 PUSH4 0x2867CC44 EQ PUSH2 0x820 JUMPI DUP1 PUSH4 0x2E18EAFF EQ PUSH2 0x791 JUMPI DUP1 PUSH4 0x3697F055 EQ PUSH2 0x66C JUMPI DUP1 PUSH4 0x6AAF09C7 EQ PUSH2 0x3A0 JUMPI DUP1 PUSH4 0x7795A63C EQ PUSH2 0x26E JUMPI DUP1 PUSH4 0x8DA5CB5B EQ PUSH2 0x245 JUMPI DUP1 PUSH4 0xA6C807A9 EQ PUSH2 0x1E9 JUMPI DUP1 PUSH4 0xA9059CBB EQ PUSH2 0x121 JUMPI DUP1 PUSH4 0xACB34CE8 EQ PUSH2 0xF1 JUMPI PUSH4 0xD0B371BD EQ PUSH2 0x8A JUMPI PUSH1 0x0 DUP1 REVERT JUMPDEST CALLVALUE PUSH2 0xEC JUMPI PUSH1 0x20 CALLDATASIZE PUSH1 0x3 NOT ADD SLT PUSH2 0xEC JUMPI PUSH1 0x1 PUSH1 0x1 PUSH1 0xA0 SHL SUB PUSH2 0xAB PUSH2 0xA5C JUMP JUMPDEST AND PUSH1 0x0 MSTORE PUSH1 0x2 PUSH1 0x20 MSTORE PUSH1 0x40 PUSH1 0x0 KECCAK256 PUSH1 0x1 DUP2 ADD SLOAD SWAP1 PUSH2 0xE8 PUSH2 0xD0 PUSH1 0x2 DUP4 ADD SLOAD SWAP3 PUSH2 0xB51 JUMP JUMPDEST SWAP2 PUSH1 0x40 MLOAD SWAP4 DUP5 SWAP4 PUSH1 0xFF DUP1 DUP4 PUSH1 0x8 SHR AND SWAP3 AND SWAP1 DUP6 PUSH2 0xC00 JUMP JUMPDEST SUB SWAP1 RETURN JUMPDEST PUSH1 0x0 DUP1 REVERT JUMPDEST CALLVALUE PUSH2 0xEC JUMPI PUSH1 0x0 CALLDATASIZE PUSH1 0x3 NOT ADD SLT PUSH2 0xEC JUMPI PUSH2 0xE8 PUSH2 0x10D PUSH2 0xAAC JUMP JUMPDEST PUSH1 0x40 MLOAD SWAP2 DUP3 SWAP2 PUSH1 0x20 DUP4 MSTORE PUSH1 0x20 DUP4 ADD SWAP1 PUSH2 0xA1B JUMP JUMPDEST PUSH1 0x40 CALLDATASIZE PUSH1 0x3 NOT ADD SLT PUSH2 0xEC JUMPI PUSH2 0x135 PUSH2 0xA5C JUMP JUMPDEST PUSH1 0x24 CALLDATALOAD SWAP1 DUP2 CALLVALUE GT ISZERO PUSH2 0x1B6 JUMPI PUSH1 0x0 DUP1 DUP1 SWAP4 DUP2 SWAP4 GAS CALL RETURNDATASIZE ISZERO PUSH2 0x1B1 JUMPI RETURNDATASIZE PUSH2 0x15A DUP2 PUSH2 0x9B8 JUMP JUMPDEST SWAP1 PUSH2 0x168 PUSH1 0x40 MLOAD SWAP3 DUP4 PUSH2 0x996 JUMP JUMPDEST DUP2 MSTORE PUSH1 0x0 PUSH1 0x20 RETURNDATASIZE SWAP3 ADD RETURNDATACOPY JUMPDEST ISZERO PUSH2 0x17A JUMPI STOP JUMPDEST PUSH1 0x40 MLOAD PUSH3 0x461BCD PUSH1 0xE5 SHL DUP2 MSTORE PUSH1 0x20 PUSH1 0x4 DUP3 ADD MSTORE PUSH1 0xF PUSH1 0x24 DUP3 ADD MSTORE PUSH15 0x151C985B9CD9995C8819985A5B1959 PUSH1 0x8A SHL PUSH1 0x44 DUP3 ADD MSTORE PUSH1 0x64 SWAP1 REVERT JUMPDEST PUSH2 0x173 JUMP JUMPDEST PUSH1 0x40 MLOAD PUSH3 0x461BCD PUSH1 0xE5 SHL DUP2 MSTORE PUSH1 0x20 PUSH1 0x4 DUP3 ADD MSTORE PUSH1 0xB PUSH1 0x24 DUP3 ADD MSTORE PUSH11 0x4E6F7420456E6F75676821 PUSH1 0xA8 SHL PUSH1 0x44 DUP3 ADD MSTORE PUSH1 0x64 SWAP1 REVERT JUMPDEST CALLVALUE PUSH2 0xEC JUMPI PUSH1 0x20 CALLDATASIZE PUSH1 0x3 NOT ADD SLT PUSH2 0xEC JUMPI PUSH1 0x1 PUSH1 0x1 PUSH1 0xA0 SHL SUB PUSH2 0x20A PUSH2 0xA5C JUMP JUMPDEST AND PUSH1 0x0 MSTORE PUSH1 0x2 PUSH1 0x20 MSTORE PUSH1 0x40 PUSH1 0x0 KECCAK256 PUSH2 0x221 DUP2 PUSH2 0xB51 JUMP JUMPDEST PUSH2 0xE8 PUSH1 0x2 PUSH1 0x1 DUP5 ADD SLOAD SWAP4 ADD SLOAD PUSH1 0x40 MLOAD SWAP4 DUP5 SWAP4 PUSH1 0xFF DUP1 DUP4 PUSH1 0x8 SHR AND SWAP3 AND SWAP1 DUP6 PUSH2 0xC00 JUMP JUMPDEST CALLVALUE PUSH2 0xEC JUMPI PUSH1 0x0 CALLDATASIZE PUSH1 0x3 NOT ADD SLT PUSH2 0xEC JUMPI PUSH1 0x3 SLOAD PUSH1 0x40 MLOAD PUSH1 0x1 PUSH1 0x1 PUSH1 0xA0 SHL SUB SWAP1 SWAP2 AND DUP2 MSTORE PUSH1 0x20 SWAP1 RETURN JUMPDEST CALLVALUE PUSH2 0xEC JUMPI PUSH1 0x0 CALLDATASIZE PUSH1 0x3 NOT ADD SLT PUSH2 0xEC JUMPI CALLER PUSH1 0x0 MSTORE PUSH1 0x2 PUSH1 0x20 MSTORE PUSH1 0x40 PUSH1 0x0 KECCAK256 PUSH2 0x297 DUP2 SLOAD PUSH2 0xA72 JUMP JUMPDEST ISZERO PUSH2 0x364 JUMPI PUSH1 0x2 DUP2 ADD DUP1 SLOAD SWAP1 PUSH1 0x1 DUP3 ADD DUP1 SWAP3 GT PUSH2 0x34E JUMPI DUP2 DUP2 SSTORE PUSH2 0x2ED SWAP2 PUSH1 0xFF SWAP2 PUSH1 0x1 SWAP2 PUSH1 0xA DUP2 LT PUSH2 0x315 JUMPI POP DUP5 DUP3 ADD DUP1 SLOAD PUSH2 0xFF00 NOT AND PUSH2 0x300 OR SWAP1 SSTORE JUMPDEST SLOAD SWAP4 ADD SLOAD PUSH1 0x8 SHR AND PUSH1 0x40 MLOAD SWAP3 DUP4 MSTORE PUSH1 0x20 DUP4 ADD SWAP1 PUSH2 0xBF3 JUMP JUMPDEST PUSH32 0xEA95F19EA1B88AA433BC407A2D341BA796E6FB2EBA8E87EC7412CB5292BBB80A PUSH1 0x40 CALLER SWAP3 LOG2 STOP JUMPDEST PUSH1 0x5 DUP2 LT PUSH2 0x333 JUMPI POP DUP5 DUP3 ADD DUP1 SLOAD PUSH2 0xFF00 NOT AND PUSH2 0x200 OR SWAP1 SSTORE PUSH2 0x2D5 JUMP JUMPDEST DUP3 GT PUSH2 0x2D5 JUMPI DUP5 DUP3 ADD DUP1 SLOAD PUSH2 0xFF00 NOT AND PUSH2 0x100 OR SWAP1 SSTORE PUSH2 0x2D5 JUMP JUMPDEST PUSH4 0x4E487B71 PUSH1 0xE0 SHL PUSH1 0x0 MSTORE PUSH1 0x11 PUSH1 0x4 MSTORE PUSH1 0x24 PUSH1 0x0 REVERT JUMPDEST PUSH1 0x40 MLOAD PUSH3 0x461BCD PUSH1 0xE5 SHL DUP2 MSTORE PUSH1 0x20 PUSH1 0x4 DUP3 ADD MSTORE PUSH1 0x14 PUSH1 0x24 DUP3 ADD MSTORE PUSH20 0x14DD1D59195B9D081B9BDD08195B9C9BDB1B1959 PUSH1 0x62 SHL PUSH1 0x44 DUP3 ADD MSTORE PUSH1 0x64 SWAP1 REVERT JUMPDEST CALLVALUE PUSH2 0xEC JUMPI PUSH1 0x40 CALLDATASIZE PUSH1 0x3 NOT ADD SLT PUSH2 0xEC JUMPI PUSH1 0x4 CALLDATALOAD PUSH8 0xFFFFFFFFFFFFFFFF DUP2 GT PUSH2 0xEC JUMPI PUSH2 0x3D1 SWAP1 CALLDATASIZE SWAP1 PUSH1 0x4 ADD PUSH2 0x9D4 JUMP JUMPDEST PUSH1 0x24 CALLDATALOAD PUSH1 0xFF DUP2 AND DUP1 SWAP2 SUB PUSH2 0xEC JUMPI DUP2 MLOAD ISZERO PUSH2 0x630 JUMPI DUP1 ISZERO PUSH2 0x5EB JUMPI PUSH1 0x40 MLOAD SWAP1 PUSH1 0x80 DUP3 ADD DUP3 DUP2 LT PUSH8 0xFFFFFFFFFFFFFFFF DUP3 GT OR PUSH2 0x5D5 JUMPI PUSH1 0x40 MSTORE DUP3 DUP3 MSTORE PUSH1 0x20 DUP3 ADD SWAP1 DUP2 MSTORE PUSH1 0x40 DUP3 ADD PUSH1 0x0 DUP2 MSTORE PUSH1 0x60 DUP4 ADD SWAP1 PUSH1 0x0 DUP3 MSTORE CALLER PUSH1 0x0 MSTORE PUSH1 0x2 PUSH1 0x20 MSTORE PUSH1 0x40 PUSH1 0x0 KECCAK256 SWAP4 MLOAD DUP1 MLOAD SWAP1 PUSH8 0xFFFFFFFFFFFFFFFF DUP3 GT PUSH2 0x5D5 JUMPI DUP2 SWAP1 PUSH2 0x453 DUP8 SLOAD PUSH2 0xA72 JUMP JUMPDEST PUSH1 0x1F DUP2 GT PUSH2 0x582 JUMPI JUMPDEST POP PUSH1 0x20 SWAP1 PUSH1 0x1F DUP4 GT PUSH1 0x1 EQ PUSH2 0x51D JUMPI PUSH1 0x0 SWAP3 PUSH2 0x512 JUMPI JUMPDEST POP POP DUP2 PUSH1 0x1 SHL SWAP2 PUSH1 0x0 NOT SWAP1 PUSH1 0x3 SHL SHR NOT AND OR DUP5 SSTORE JUMPDEST PUSH1 0xFF PUSH1 0x1 DUP6 ADD SWAP4 MLOAD AND PUSH1 0xFF NOT DUP5 SLOAD AND OR DUP4 SSTORE MLOAD SWAP2 PUSH1 0x4 DUP4 LT ISZERO PUSH2 0x4FC JUMPI PUSH1 0x2 SWAP3 PUSH2 0xFF00 DUP3 SLOAD SWAP2 PUSH1 0x8 SHL AND SWAP1 PUSH2 0xFF00 NOT AND OR SWAP1 SSTORE MLOAD SWAP2 ADD SSTORE PUSH32 0xAFF7CC483474AF47A4F10A113769FAB99AB00B1DB774DAA5D77669EB7D708604 PUSH1 0x40 MLOAD PUSH1 0x20 DUP2 MSTORE DUP1 PUSH2 0x4F7 CALLER SWAP5 PUSH1 0x20 DUP4 ADD SWAP1 PUSH2 0xA1B JUMP JUMPDEST SUB SWAP1 LOG2 STOP JUMPDEST PUSH4 0x4E487B71 PUSH1 0xE0 SHL PUSH1 0x0 MSTORE PUSH1 0x21 PUSH1 0x4 MSTORE PUSH1 0x24 PUSH1 0x0 REVERT JUMPDEST ADD MLOAD SWAP1 POP DUP8 DUP1 PUSH2 0x473 JUMP JUMPDEST PUSH1 0x0 DUP9 DUP2 MSTORE DUP3 DUP2 KECCAK256 SWAP4 POP PUSH1 0x1F NOT DUP6 AND SWAP1 JUMPDEST DUP2 DUP2 LT PUSH2 0x56A JUMPI POP SWAP1 DUP5 PUSH1 0x1 SWAP6 SWAP5 SWAP4 SWAP3 LT PUSH2 0x551 JUMPI JUMPDEST POP POP POP DUP2 SHL ADD DUP5 SSTORE PUSH2 0x488 JUMP JUMPDEST ADD MLOAD PUSH1 0x0 NOT PUSH1 0xF8 DUP5 PUSH1 0x3 SHL AND SHR NOT AND SWAP1 SSTORE DUP8 DUP1 DUP1 PUSH2 0x544 JUMP JUMPDEST SWAP3 SWAP4 PUSH1 0x20 PUSH1 0x1 DUP2 SWAP3 DUP8 DUP7 ADD MLOAD DUP2 SSTORE ADD SWAP6 ADD SWAP4 ADD PUSH2 0x52E JUMP JUMPDEST SWAP1 SWAP2 POP DUP7 PUSH1 0x0 MSTORE PUSH1 0x20 PUSH1 0x0 KECCAK256 PUSH1 0x1F DUP5 ADD PUSH1 0x5 SHR DUP2 ADD SWAP2 PUSH1 0x20 DUP6 LT PUSH2 0x5CB JUMPI JUMPDEST SWAP1 PUSH1 0x1F DUP6 SWAP5 SWAP4 SWAP3 ADD PUSH1 0x5 SHR ADD SWAP1 JUMPDEST DUP2 DUP2 LT PUSH2 0x5BC JUMPI POP PUSH2 0x45C JUMP JUMPDEST PUSH1 0x0 DUP2 SSTORE DUP5 SWAP4 POP PUSH1 0x1 ADD PUSH2 0x5AF JUMP JUMPDEST SWAP1 SWAP2 POP DUP2 SWAP1 PUSH2 0x5A1 JUMP JUMPDEST PUSH4 0x4E487B71 PUSH1 0xE0 SHL PUSH1 0x0 MSTORE PUSH1 0x41 PUSH1 0x4 MSTORE PUSH1 0x24 PUSH1 0x0 REVERT JUMPDEST PUSH1 0x40 MLOAD PUSH3 0x461BCD PUSH1 0xE5 SHL DUP2 MSTORE PUSH1 0x20 PUSH1 0x4 DUP3 ADD MSTORE PUSH1 0x1A PUSH1 0x24 DUP3 ADD MSTORE PUSH32 0x416765206D7573742062652067726561746572207468616E2030000000000000 PUSH1 0x44 DUP3 ADD MSTORE PUSH1 0x64 SWAP1 REVERT JUMPDEST PUSH1 0x40 MLOAD PUSH3 0x461BCD PUSH1 0xE5 SHL DUP2 MSTORE PUSH1 0x20 PUSH1 0x4 DUP3 ADD MSTORE PUSH1 0x14 PUSH1 0x24 DUP3 ADD MSTORE PUSH20 0x4E616D652063616E6E6F7420626520656D707479 PUSH1 0x60 SHL PUSH1 0x44 DUP3 ADD MSTORE PUSH1 0x64 SWAP1 REVERT JUMPDEST CALLVALUE PUSH2 0xEC JUMPI PUSH1 0x20 CALLDATASIZE PUSH1 0x3 NOT ADD SLT PUSH2 0xEC JUMPI PUSH1 0x3 SLOAD PUSH1 0x4 CALLDATALOAD SWAP1 PUSH1 0x1 PUSH1 0x1 PUSH1 0xA0 SHL SUB AND CALLER DUP2 SWAP1 SUB PUSH2 0x73D JUMPI SELFBALANCE DUP3 GT PUSH2 0x701 JUMPI PUSH1 0x0 DUP1 DUP1 DUP5 DUP2 SWAP5 DUP3 DUP3 ISZERO PUSH2 0x6F8 JUMPI JUMPDEST CALL ISZERO PUSH2 0x6EC JUMPI PUSH1 0x3 SLOAD PUSH1 0x40 MLOAD SWAP2 DUP3 MSTORE PUSH1 0x1 PUSH1 0x1 PUSH1 0xA0 SHL SUB AND SWAP1 PUSH32 0xEAFF4B37086828766AD3268786972C0CD24259D4C87A80F9D3963A3C3D999B0D SWAP1 PUSH1 0x20 SWAP1 LOG2 STOP JUMPDEST PUSH1 0x40 MLOAD RETURNDATASIZE PUSH1 0x0 DUP3 RETURNDATACOPY RETURNDATASIZE SWAP1 REVERT JUMPDEST POP PUSH2 0x8FC PUSH2 0x6AB JUMP JUMPDEST PUSH1 0x40 MLOAD PUSH3 0x461BCD PUSH1 0xE5 SHL DUP2 MSTORE PUSH1 0x20 PUSH1 0x4 DUP3 ADD MSTORE PUSH1 0x14 PUSH1 0x24 DUP3 ADD MSTORE PUSH20 0x496E73756666696369656E742062616C616E6365 PUSH1 0x60 SHL PUSH1 0x44 DUP3 ADD MSTORE PUSH1 0x64 SWAP1 REVERT JUMPDEST PUSH1 0x40 MLOAD PUSH3 0x461BCD PUSH1 0xE5 SHL DUP2 MSTORE PUSH1 0x20 PUSH1 0x4 DUP3 ADD MSTORE PUSH1 0x26 PUSH1 0x24 DUP3 ADD MSTORE PUSH32 0x4F6E6C7920746865206F776E65722063616E20706572666F726D207468697320 PUSH1 0x44 DUP3 ADD MSTORE PUSH6 0x30B1BA34B7B7 PUSH1 0xD1 SHL PUSH1 0x64 DUP3 ADD MSTORE PUSH1 0x84 SWAP1 REVERT JUMPDEST PUSH1 0x0 CALLDATASIZE PUSH1 0x3 NOT ADD SLT PUSH2 0xEC JUMPI CALLVALUE ISZERO PUSH2 0x7D1 JUMPI PUSH1 0x40 MLOAD CALLVALUE DUP2 MSTORE PUSH32 0x543BA50A5EEC5E6178218E364B1D0F396157B3C8FA278522C2CB7FD99407D474 PUSH1 0x20 CALLER SWAP3 LOG2 STOP JUMPDEST PUSH1 0x40 MLOAD PUSH3 0x461BCD PUSH1 0xE5 SHL DUP2 MSTORE PUSH1 0x20 PUSH1 0x4 DUP3 ADD MSTORE PUSH1 0x21 PUSH1 0x24 DUP3 ADD MSTORE PUSH32 0x4465706F736974206D7573742062652067726561746572207468616E207A6572 PUSH1 0x44 DUP3 ADD MSTORE PUSH1 0x6F PUSH1 0xF8 SHL PUSH1 0x64 DUP3 ADD MSTORE PUSH1 0x84 SWAP1 REVERT JUMPDEST CALLVALUE PUSH2 0xEC JUMPI PUSH1 0x20 CALLDATASIZE PUSH1 0x3 NOT ADD SLT PUSH2 0xEC JUMPI PUSH1 0x4 CALLDATALOAD PUSH8 0xFFFFFFFFFFFFFFFF DUP2 GT PUSH2 0xEC JUMPI PUSH2 0x851 SWAP1 CALLDATASIZE SWAP1 PUSH1 0x4 ADD PUSH2 0x9D4 JUMP JUMPDEST DUP1 MLOAD PUSH8 0xFFFFFFFFFFFFFFFF DUP2 GT PUSH2 0x5D5 JUMPI PUSH2 0x86D PUSH1 0x0 SLOAD PUSH2 0xA72 JUMP JUMPDEST PUSH1 0x1F DUP2 GT PUSH2 0x92A JUMPI JUMPDEST POP PUSH1 0x20 SWAP2 PUSH1 0x1F DUP3 GT PUSH1 0x1 EQ PUSH2 0x8BC JUMPI SWAP2 DUP2 SWAP3 PUSH1 0x0 SWAP3 PUSH2 0x8B1 JUMPI JUMPDEST POP POP DUP2 PUSH1 0x1 SHL SWAP2 PUSH1 0x0 NOT SWAP1 PUSH1 0x3 SHL SHR NOT AND OR PUSH1 0x0 SSTORE JUMPDEST PUSH2 0xE8 PUSH2 0x10D PUSH2 0xAAC JUMP JUMPDEST ADD MLOAD SWAP1 POP DUP3 DUP1 PUSH2 0x890 JUMP JUMPDEST PUSH1 0x1F NOT DUP3 AND SWAP3 PUSH1 0x0 DUP1 MSTORE PUSH1 0x0 DUP1 MLOAD PUSH1 0x20 PUSH2 0xC34 DUP4 CODECOPY DUP2 MLOAD SWAP2 MSTORE SWAP2 PUSH1 0x0 JUMPDEST DUP6 DUP2 LT PUSH2 0x912 JUMPI POP DUP4 PUSH1 0x1 SWAP6 LT PUSH2 0x8F9 JUMPI JUMPDEST POP POP POP DUP2 SHL ADD PUSH1 0x0 SSTORE PUSH2 0x8A6 JUMP JUMPDEST ADD MLOAD PUSH1 0x0 NOT PUSH1 0xF8 DUP5 PUSH1 0x3 SHL AND SHR NOT AND SWAP1 SSTORE DUP3 DUP1 DUP1 PUSH2 0x8EB JUMP JUMPDEST SWAP2 SWAP3 PUSH1 0x20 PUSH1 0x1 DUP2 SWAP3 DUP7 DUP6 ADD MLOAD DUP2 SSTORE ADD SWAP5 ADD SWAP3 ADD PUSH2 0x8D9 JUMP JUMPDEST PUSH1 0x0 DUP1 MSTORE PUSH1 0x1F DUP3 ADD PUSH1 0x5 SHR PUSH1 0x0 DUP1 MLOAD PUSH1 0x20 PUSH2 0xC34 DUP4 CODECOPY DUP2 MLOAD SWAP2 MSTORE ADD SWAP1 PUSH1 0x20 DUP4 LT PUSH2 0x980 JUMPI JUMPDEST PUSH1 0x1F ADD PUSH1 0x5 SHR PUSH1 0x0 DUP1 MLOAD PUSH1 0x20 PUSH2 0xC34 DUP4 CODECOPY DUP2 MLOAD SWAP2 MSTORE ADD SWAP1 JUMPDEST DUP2 DUP2 LT PUSH2 0x974 JUMPI POP PUSH2 0x876 JUMP JUMPDEST PUSH1 0x0 DUP2 SSTORE PUSH1 0x1 ADD PUSH2 0x967 JUMP JUMPDEST PUSH1 0x0 DUP1 MLOAD PUSH1 0x20 PUSH2 0xC34 DUP4 CODECOPY DUP2 MLOAD SWAP2 MSTORE SWAP2 POP PUSH2 0x94F JUMP JUMPDEST SWAP1 PUSH1 0x1F DUP1 NOT SWAP2 ADD AND DUP2 ADD SWAP1 DUP2 LT PUSH8 0xFFFFFFFFFFFFFFFF DUP3 GT OR PUSH2 0x5D5 JUMPI PUSH1 0x40 MSTORE JUMP JUMPDEST PUSH8 0xFFFFFFFFFFFFFFFF DUP2 GT PUSH2 0x5D5 JUMPI PUSH1 0x1F ADD PUSH1 0x1F NOT AND PUSH1 0x20 ADD SWAP1 JUMP JUMPDEST DUP2 PUSH1 0x1F DUP3 ADD SLT ISZERO PUSH2 0xEC JUMPI DUP1 CALLDATALOAD SWAP1 PUSH2 0x9EB DUP3 PUSH2 0x9B8 JUMP JUMPDEST SWAP3 PUSH2 0x9F9 PUSH1 0x40 MLOAD SWAP5 DUP6 PUSH2 0x996 JUMP JUMPDEST DUP3 DUP5 MSTORE PUSH1 0x20 DUP4 DUP4 ADD ADD GT PUSH2 0xEC JUMPI DUP2 PUSH1 0x0 SWAP3 PUSH1 0x20 DUP1 SWAP4 ADD DUP4 DUP7 ADD CALLDATACOPY DUP4 ADD ADD MSTORE SWAP1 JUMP JUMPDEST SWAP2 SWAP1 DUP3 MLOAD SWAP3 DUP4 DUP3 MSTORE PUSH1 0x0 JUMPDEST DUP5 DUP2 LT PUSH2 0xA47 JUMPI POP POP DUP3 PUSH1 0x0 PUSH1 0x20 DUP1 SWAP5 SWAP6 DUP5 ADD ADD MSTORE PUSH1 0x1F DUP1 NOT SWAP2 ADD AND ADD ADD SWAP1 JUMP JUMPDEST DUP1 PUSH1 0x20 DUP1 SWAP3 DUP5 ADD ADD MLOAD DUP3 DUP3 DUP7 ADD ADD MSTORE ADD PUSH2 0xA26 JUMP JUMPDEST PUSH1 0x4 CALLDATALOAD SWAP1 PUSH1 0x1 PUSH1 0x1 PUSH1 0xA0 SHL SUB DUP3 AND DUP3 SUB PUSH2 0xEC JUMPI JUMP JUMPDEST SWAP1 PUSH1 0x1 DUP3 DUP2 SHR SWAP3 AND DUP1 ISZERO PUSH2 0xAA2 JUMPI JUMPDEST PUSH1 0x20 DUP4 LT EQ PUSH2 0xA8C JUMPI JUMP JUMPDEST PUSH4 0x4E487B71 PUSH1 0xE0 SHL PUSH1 0x0 MSTORE PUSH1 0x22 PUSH1 0x4 MSTORE PUSH1 0x24 PUSH1 0x0 REVERT JUMPDEST SWAP2 PUSH1 0x7F AND SWAP2 PUSH2 0xA81 JUMP JUMPDEST PUSH1 0x40 MLOAD SWAP1 PUSH1 0x0 DUP3 PUSH1 0x0 SLOAD SWAP2 PUSH2 0xAC0 DUP4 PUSH2 0xA72 JUMP JUMPDEST DUP1 DUP4 MSTORE SWAP3 PUSH1 0x1 DUP2 AND SWAP1 DUP2 ISZERO PUSH2 0xB32 JUMPI POP PUSH1 0x1 EQ PUSH2 0xAE6 JUMPI JUMPDEST PUSH2 0xAE4 SWAP3 POP SUB DUP4 PUSH2 0x996 JUMP JUMPDEST JUMP JUMPDEST POP PUSH1 0x0 DUP1 DUP1 MSTORE SWAP1 SWAP2 PUSH1 0x0 DUP1 MLOAD PUSH1 0x20 PUSH2 0xC34 DUP4 CODECOPY DUP2 MLOAD SWAP2 MSTORE JUMPDEST DUP2 DUP4 LT PUSH2 0xB16 JUMPI POP POP SWAP1 PUSH1 0x20 PUSH2 0xAE4 SWAP3 DUP3 ADD ADD PUSH2 0xAD8 JUMP JUMPDEST PUSH1 0x20 SWAP2 SWAP4 POP DUP1 PUSH1 0x1 SWAP2 SLOAD DUP4 DUP6 DUP10 ADD ADD MSTORE ADD SWAP2 ADD SWAP1 SWAP2 DUP5 SWAP3 PUSH2 0xAFE JUMP JUMPDEST PUSH1 0x20 SWAP3 POP PUSH2 0xAE4 SWAP5 SWAP2 POP PUSH1 0xFF NOT AND DUP3 DUP5 ADD MSTORE ISZERO ISZERO PUSH1 0x5 SHL DUP3 ADD ADD PUSH2 0xAD8 JUMP JUMPDEST SWAP1 PUSH1 0x40 MLOAD SWAP2 DUP3 PUSH1 0x0 DUP3 SLOAD SWAP3 PUSH2 0xB65 DUP5 PUSH2 0xA72 JUMP JUMPDEST DUP1 DUP5 MSTORE SWAP4 PUSH1 0x1 DUP2 AND SWAP1 DUP2 ISZERO PUSH2 0xBD1 JUMPI POP PUSH1 0x1 EQ PUSH2 0xB8A JUMPI JUMPDEST POP PUSH2 0xAE4 SWAP3 POP SUB DUP4 PUSH2 0x996 JUMP JUMPDEST SWAP1 POP PUSH1 0x0 SWAP3 SWAP2 SWAP3 MSTORE PUSH1 0x20 PUSH1 0x0 KECCAK256 SWAP1 PUSH1 0x0 SWAP2 JUMPDEST DUP2 DUP4 LT PUSH2 0xBB5 JUMPI POP POP SWAP1 PUSH1 0x20 PUSH2 0xAE4 SWAP3 DUP3 ADD ADD CODESIZE PUSH2 0xB7D JUMP JUMPDEST PUSH1 0x20 SWAP2 SWAP4 POP DUP1 PUSH1 0x1 SWAP2 SLOAD DUP4 DUP6 DUP10 ADD ADD MSTORE ADD SWAP2 ADD SWAP1 SWAP2 DUP5 SWAP3 PUSH2 0xB9C JUMP JUMPDEST SWAP1 POP PUSH1 0x20 SWAP3 POP PUSH2 0xAE4 SWAP5 SWAP2 POP PUSH1 0xFF NOT AND DUP3 DUP5 ADD MSTORE ISZERO ISZERO PUSH1 0x5 SHL DUP3 ADD ADD CODESIZE PUSH2 0xB7D JUMP JUMPDEST SWAP1 PUSH1 0x4 DUP3 LT ISZERO PUSH2 0x4FC JUMPI MSTORE JUMP JUMPDEST SWAP1 PUSH1 0x60 SWAP3 SWAP6 SWAP5 SWAP4 PUSH1 0xFF PUSH2 0xC1E PUSH2 0xC2F SWAP4 PUSH1 0x80 DUP7 MSTORE PUSH1 0x80 DUP7 ADD SWAP1 PUSH2 0xA1B JUMP JUMPDEST SWAP8 AND PUSH1 0x20 DUP5 ADD MSTORE PUSH1 0x40 DUP4 ADD SWAP1 PUSH2 0xBF3 JUMP JUMPDEST ADD MSTORE JUMP INVALID 0x29 0xD 0xEC 0xD9 SLOAD DUP12 PUSH3 0xA8D603 GASLIMIT 0xA9 DUP9 CODESIZE PUSH16 0xC84BA6BC95484008F6362F93160EF3E5 PUSH4 0xA2646970 PUSH7 0x7358221220CB99 0xE7 PUSH20 0x46C18C9E1DA25026C42E3411B630D4897935EB00 PUSH22 0x21661180C5DB2F64736F6C634300081C003300000000 "
        },
        "methodIdentifiers": {
          "FundDapp()": "2e18eaff",
          "completeCourse()": "7795a63c",
          "enroll(string,uint8)": "6aaf09c7",
          "getStudentDetails(address)": "d0b371bd",
          "greetings()": "acb34ce8",
          "owner()": "8da5cb5b",
          "students(address)": "a6c807a9",
          "transfer(address,uint256)": "a9059cbb",
          "updateGreeting(string)": "2867cc44",
          "withdrawFunding(uint256)": "3697f055"
        }
      }
    }
  }
}