{
  "_format": "hh-sol-artifact-1",
  "contractName": "JINX",
  "sourceName": "contracts/NFT.sol",
  "abi": [
    {
      "inputs": [],
      "stateMutability": "nonpayable",
      "type": "constructor"
    },
    {
      "anonymous": false,
      "inputs": [
        {
          "indexed": true,
          "internalType": "address",
          "name": "owner",
          "type": "address"
        },
        {
          "indexed": true,
          "internalType": "address",
          "name": "approved",
          "type": "address"
        },
        {
          "indexed": true,
          "internalType": "uint256",
          "name": "tokenId",
          "type": "uint256"
        }
      ],
      "name": "Approval",
      "type": "event"
    },
    {
      "anonymous": false,
      "inputs": [
        {
          "indexed": true,
          "internalType": "address",
          "name": "owner",
          "type": "address"
        },
        {
          "indexed": true,
          "internalType": "address",
          "name": "operator",
          "type": "address"
        },
        {
          "indexed": false,
          "internalType": "bool",
          "name": "approved",
          "type": "bool"
        }
      ],
      "name": "ApprovalForAll",
      "type": "event"
    },
    {
      "anonymous": false,
      "inputs": [
        {
          "indexed": false,
          "internalType": "uint256",
          "name": "_fromTokenId",
          "type": "uint256"
        },
        {
          "indexed": false,
          "internalType": "uint256",
          "name": "_toTokenId",
          "type": "uint256"
        }
      ],
      "name": "BatchMetadataUpdate",
      "type": "event"
    },
    {
      "anonymous": false,
      "inputs": [
        {
          "indexed": false,
          "internalType": "uint256",
          "name": "_tokenId",
          "type": "uint256"
        }
      ],
      "name": "MetadataUpdate",
      "type": "event"
    },
    {
      "anonymous": false,
      "inputs": [
        {
          "indexed": true,
          "internalType": "address",
          "name": "from",
          "type": "address"
        },
        {
          "indexed": true,
          "internalType": "address",
          "name": "to",
          "type": "address"
        },
        {
          "indexed": true,
          "internalType": "uint256",
          "name": "tokenId",
          "type": "uint256"
        }
      ],
      "name": "Transfer",
      "type": "event"
    },
    {
      "inputs": [
        {
          "internalType": "address",
          "name": "to",
          "type": "address"
        },
        {
          "internalType": "uint256",
          "name": "tokenId",
          "type": "uint256"
        }
      ],
      "name": "approve",
      "outputs": [],
      "stateMutability": "nonpayable",
      "type": "function"
    },
    {
      "inputs": [
        {
          "internalType": "address",
          "name": "owner",
          "type": "address"
        }
      ],
      "name": "balanceOf",
      "outputs": [
        {
          "internalType": "uint256",
          "name": "",
          "type": "uint256"
        }
      ],
      "stateMutability": "view",
      "type": "function"
    },
    {
      "inputs": [
        {
          "internalType": "uint256",
          "name": "tokenId",
          "type": "uint256"
        }
      ],
      "name": "getApproved",
      "outputs": [
        {
          "internalType": "address",
          "name": "",
          "type": "address"
        }
      ],
      "stateMutability": "view",
      "type": "function"
    },
    {
      "inputs": [
        {
          "internalType": "address",
          "name": "owner",
          "type": "address"
        },
        {
          "internalType": "address",
          "name": "operator",
          "type": "address"
        }
      ],
      "name": "isApprovedForAll",
      "outputs": [
        {
          "internalType": "bool",
          "name": "",
          "type": "bool"
        }
      ],
      "stateMutability": "view",
      "type": "function"
    },
    {
      "inputs": [],
      "name": "mintNFT",
      "outputs": [
        {
          "internalType": "uint256",
          "name": "",
          "type": "uint256"
        }
      ],
      "stateMutability": "nonpayable",
      "type": "function"
    },
    {
      "inputs": [],
      "name": "name",
      "outputs": [
        {
          "internalType": "string",
          "name": "",
          "type": "string"
        }
      ],
      "stateMutability": "view",
      "type": "function"
    },
    {
      "inputs": [
        {
          "internalType": "uint256",
          "name": "tokenId",
          "type": "uint256"
        }
      ],
      "name": "ownerOf",
      "outputs": [
        {
          "internalType": "address",
          "name": "",
          "type": "address"
        }
      ],
      "stateMutability": "view",
      "type": "function"
    },
    {
      "inputs": [
        {
          "internalType": "address",
          "name": "from",
          "type": "address"
        },
        {
          "internalType": "address",
          "name": "to",
          "type": "address"
        },
        {
          "internalType": "uint256",
          "name": "tokenId",
          "type": "uint256"
        }
      ],
      "name": "safeTransferFrom",
      "outputs": [],
      "stateMutability": "nonpayable",
      "type": "function"
    },
    {
      "inputs": [
        {
          "internalType": "address",
          "name": "from",
          "type": "address"
        },
        {
          "internalType": "address",
          "name": "to",
          "type": "address"
        },
        {
          "internalType": "uint256",
          "name": "tokenId",
          "type": "uint256"
        },
        {
          "internalType": "bytes",
          "name": "data",
          "type": "bytes"
        }
      ],
      "name": "safeTransferFrom",
      "outputs": [],
      "stateMutability": "nonpayable",
      "type": "function"
    },
    {
      "inputs": [
        {
          "internalType": "address",
          "name": "operator",
          "type": "address"
        },
        {
          "internalType": "bool",
          "name": "approved",
          "type": "bool"
        }
      ],
      "name": "setApprovalForAll",
      "outputs": [],
      "stateMutability": "nonpayable",
      "type": "function"
    },
    {
      "inputs": [
        {
          "internalType": "bytes4",
          "name": "interfaceId",
          "type": "bytes4"
        }
      ],
      "name": "supportsInterface",
      "outputs": [
        {
          "internalType": "bool",
          "name": "",
          "type": "bool"
        }
      ],
      "stateMutability": "view",
      "type": "function"
    },
    {
      "inputs": [],
      "name": "symbol",
      "outputs": [
        {
          "internalType": "string",
          "name": "",
          "type": "string"
        }
      ],
      "stateMutability": "view",
      "type": "function"
    },
    {
      "inputs": [
        {
          "internalType": "uint256",
          "name": "tokenId",
          "type": "uint256"
        }
      ],
      "name": "tokenURI",
      "outputs": [
        {
          "internalType": "string",
          "name": "",
          "type": "string"
        }
      ],
      "stateMutability": "view",
      "type": "function"
    },
    {
      "inputs": [
        {
          "internalType": "address",
          "name": "from",
          "type": "address"
        },
        {
          "internalType": "address",
          "name": "to",
          "type": "address"
        },
        {
          "internalType": "uint256",
          "name": "tokenId",
          "type": "uint256"
        }
      ],
      "name": "transferFrom",
      "outputs": [],
      "stateMutability": "nonpayable",
      "type": "function"
    }
  ],
  "bytecode": "0x60806040523461031f57604080519081016001600160401b0381118282101761022c5760409081526004825263094929cb60e31b602083015280519081016001600160401b0381118282101761022c5760405260038152620949cb60eb1b602082015281516001600160401b03811161022c57600054600181811c91168015610315575b602082101461020c57601f81116102b1575b50602092601f821160011461024d5792819293600092610242575b50508160011b916000199060031b1c1916176000555b80516001600160401b03811161022c57600154600181811c91168015610222575b602082101461020c57601f81116101a7575b50602091601f821160011461014357918192600092610138575b50508160011b916000199060031b1c1916176001555b6040516113b790816103258239f35b015190503880610113565b601f198216926001600052806000209160005b85811061018f57508360019510610176575b505050811b01600155610129565b015160001960f88460031b161c19169055388080610168565b91926020600181928685015181550194019201610156565b60016000527fb10e2d527612073b26eecdfd717e6a320cf44b4afac2b0732d9fcbe2b7fa0cf6601f830160051c81019160208410610202575b601f0160051c01905b8181106101f657506100f9565b600081556001016101e9565b90915081906101e0565b634e487b7160e01b600052602260045260246000fd5b90607f16906100e7565b634e487b7160e01b600052604160045260246000fd5b0151905038806100b0565b601f1982169360008052806000209160005b8681106102995750836001959610610280575b505050811b016000556100c6565b015160001960f88460031b161c19169055388080610272565b9192602060018192868501518155019401920161025f565b600080527f290decd9548b62a8d60345a988386fc84ba6bc95484008f6362f93160ef3e563601f830160051c8101916020841061030b575b601f0160051c01905b8181106102ff5750610095565b600081556001016102f2565b90915081906102e9565b90607f1690610083565b600080fdfe608080604052600436101561001357600080fd5b60003560e01c90816301ffc9a714610bca5750806306fdde0314610b25578063081812fc14610b07578063095ea7b31461097e57806314f710fe1461049557806323b872dd1461046c57806342842e0e146104425780636352211e1461041257806370a082311461037b57806395d89b41146102ad578063a22cb465146101db578063b88d4fde14610150578063c87b56dd146101195763e985e9c5146100b957600080fd5b34610114576040366003190112610114576100d2610c8e565b6100da610ca4565b9060018060a01b0316600052600560205260406000209060018060a01b0316600052602052602060ff604060002054166040519015158152f35b600080fd5b346101145760203660031901126101145761014c610138600435610ec6565b604051918291602083526020830190610c4f565b0390f35b3461011457608036600319011261011457610169610c8e565b610171610ca4565b6064359167ffffffffffffffff831161011457366023840112156101145782600401359161019e83610d16565b926101ac6040519485610cf4565b80845236602482870101116101145760208160009260246101d99801838801378501015260443591610e7e565b005b34610114576040366003190112610114576101f4610c8e565b60243590811515809203610114576001600160a01b03169033821461026857336000526005602052604060002082600052602052604060002060ff1981541660ff83161790556040519081527f17307eab39ab6107e8899845ad3d59bd9653f200f220920489ca2b5937696c3160203392a3005b60405162461bcd60e51b815260206004820152601960248201527f4552433732313a20617070726f766520746f2063616c6c6572000000000000006044820152606490fd5b346101145760003660031901126101145760405160006001546102cf81610d32565b808452906001811690811561035757506001146102f7575b61014c8361013881850382610cf4565b91905060016000527fb10e2d527612073b26eecdfd717e6a320cf44b4afac2b0732d9fcbe2b7fa0cf6916000905b80821061033d575090915081016020016101386102e7565b919260018160209254838588010152019101909291610325565b60ff191660208086019190915291151560051b8401909101915061013890506102e7565b34610114576020366003190112610114576001600160a01b0361039c610c8e565b1680156103bb5760005260036020526020604060002054604051908152f35b60405162461bcd60e51b815260206004820152602960248201527f4552433732313a2061646472657373207a65726f206973206e6f7420612076616044820152683634b21037bbb732b960b91b6064820152608490fd5b34610114576020366003190112610114576020610430600435610e58565b6040516001600160a01b039091168152f35b34610114576101d961045336610cba565b9060405192610463602085610cf4565b60008452610e7e565b34610114576101d961047d36610cba565b9161049061048b8433610ff7565b610daa565b6110ca565b3461011457600036600319011261011457600754600019811461096857600101806007553315610924576000818152600260205260409020546104e4906001600160a01b031615155b15610fab565b600081815260026020526040902054610507906001600160a01b031615156104de565b336000818152600360209081526040808320805460010190558483526002909152812080546001600160a01b031916831790558291907fddf252ad1be2c89b69c2b068fc378daa952ba7f163c4a11628f55a4df523b3ef8180a460405161057061012082610cf4565b60fb81527f68747470733a2f2f667563687369612d6d616e792d626561722d3936392e6d7960208201527f70696e6174612e636c6f75642f66696c65732f6261666b72656962663636747560408201527f36357275377869776235677676766262697076776264366569747970656e357760608201527f77666873337264766661616774653f582d416c676f726974686d3d50494e415460808201527f413126582d446174653d3137333437383431373626582d457870697265733d3360a08201527f3026582d4d6574686f643d47455426582d5369676e61747572653d383336613660c08201527f363630386462363734343130393061303864613338366464646335356630643960e08201527f64613334303139653964363961643538626632616438623735636500000000006101008201526106c482600052600260205260018060a01b0360406000205416151590565b156108c85781600052600660205260406000209181519267ffffffffffffffff84116108b2576106f48154610d32565b93601f851161086a575b602094508493601f82116001146108075793819293946000926107fc575b50508160011b916000199060031b1c19161790555b7ff8e1a15aba9398e019f0b49df1a4fde98ee17ae345cb5f6b5e2c27f5033e8ce782604051838152a160008060405161076b606082610cf4565b602381527f546865204e465420494420257320686173206265656e206d696e74656420746f858201526220257360e81b60408201526040516107e3816107c98882019463038fd88960e31b8652606060248401526084830190610c4f565b87604483015233606483015203601f198101835282610cf4565b51906a636f6e736f6c652e6c6f675afa50604051908152f35b01519050858061071c565b601f1982169483600052806000209160005b87811061085357508360019596971061083a575b505050811b019055610731565b015160001960f88460031b161c1916905585808061082d565b919288600181928685015181550194019201610819565b816000526020600020601f820160051c810195602083106108a8575b601f0160051c01945b85811061089c57506106fe565b6000815560010161088f565b9095508590610886565b634e487b7160e01b600052604160045260246000fd5b60405162461bcd60e51b815260206004820152602e60248201527f45524337323155524953746f726167653a2055524920736574206f66206e6f6e60448201526d32bc34b9ba32b73a103a37b5b2b760911b6064820152608490fd5b606460405162461bcd60e51b815260206004820152602060248201527f4552433732313a206d696e7420746f20746865207a65726f20616464726573736044820152fd5b634e487b7160e01b600052601160045260246000fd5b3461011457604036600319011261011457610997610c8e565b602435906001600160a01b036109ac83610e58565b6001600160a01b039092169116818114610ab857803314908115610a93575b5015610a2857600082815260046020526040902080546001600160a01b031916821790556001600160a01b03610a0083610e58565b167f8c5be1e5ebec7d5bd14f71427d1e84f3dd0314c0f7b2291e5b200ac8c7c3b925600080a4005b60405162461bcd60e51b815260206004820152603d60248201527f4552433732313a20617070726f76652063616c6c6572206973206e6f7420746f60448201527f6b656e206f776e6572206f7220617070726f76656420666f7220616c6c0000006064820152608490fd5b600090815260056020908152604080832033845290915290205460ff169050836109cb565b60405162461bcd60e51b815260206004820152602160248201527f4552433732313a20617070726f76616c20746f2063757272656e74206f776e656044820152603960f91b6064820152608490fd5b34610114576020366003190112610114576020610430600435610d6c565b346101145760003660031901126101145760405160008054610b4681610d32565b80845290600181169081156103575750600114610b6d5761014c8361013881850382610cf4565b60008080527f290decd9548b62a8d60345a988386fc84ba6bc95484008f6362f93160ef3e563939250905b808210610bb0575090915081016020016101386102e7565b919260018160209254838588010152019101909291610b98565b34610114576020366003190112610114576004359063ffffffff60e01b821680920361011457602091632483248360e11b8114908115610c0c575b5015158152f35b6380ac58cd60e01b811491508115610c3e575b8115610c2d575b5083610c05565b6301ffc9a760e01b14905083610c26565b635b5e139f60e01b81149150610c1f565b919082518082526020808301940160005b828110610c7e575050600081602094950152601f8019910116010190565b8181015186820152602001610c60565b600435906001600160a01b038216820361011457565b602435906001600160a01b038216820361011457565b6060906003190112610114576004356001600160a01b038116810361011457906024356001600160a01b0381168103610114579060443590565b90601f8019910116810190811067ffffffffffffffff8211176108b257604052565b67ffffffffffffffff81116108b257601f01601f191660200190565b90600182811c92168015610d62575b6020831014610d4c57565b634e487b7160e01b600052602260045260246000fd5b91607f1691610d41565b600081815260026020526040902054610d8f906001600160a01b03161515610e0c565b6000908152600460205260409020546001600160a01b031690565b15610db157565b60405162461bcd60e51b815260206004820152602d60248201527f4552433732313a2063616c6c6572206973206e6f7420746f6b656e206f776e6560448201526c1c881bdc88185c1c1c9bdd9959609a1b6064820152608490fd5b15610e1357565b60405162461bcd60e51b815260206004820152601860248201527f4552433732313a20696e76616c696420746f6b656e20494400000000000000006044820152606490fd5b6000908152600260205260409020546001600160a01b0316610e7b811515610e0c565b90565b90610ea2939291610e9261048b8433610ff7565b610e9d8383836110ca565b611255565b15610ea957565b60405162461bcd60e51b815280610ec260048201611202565b0390fd5b600081815260026020526040902054610ee9906001600160a01b03161515610e0c565b6000526006602052604060002060405190816000825492610f0984610d32565b8084529360018116908115610f895750600114610f42575b50610f2e92500382610cf4565b6000604051610f3e602082610cf4565b5290565b90506000929192526020600020906000915b818310610f6d575050906020610f2e9282010138610f21565b6020919350806001915483858801015201910190918392610f54565b905060209250610f2e94915060ff191682840152151560051b82010138610f21565b15610fb257565b60405162461bcd60e51b815260206004820152601c60248201527f4552433732313a20746f6b656e20616c7265616479206d696e746564000000006044820152606490fd5b906001600160a01b0361100982610e58565b6001600160a01b0390931692168281149291908315611049575b50821561102f57505090565b9091506001600160a01b039061104490610d6c565b161490565b909250600052600560205260406000208160005260205260ff604060002054169138611023565b1561107757565b60405162461bcd60e51b815260206004820152602560248201527f4552433732313a207472616e736665722066726f6d20696e636f72726563742060448201526437bbb732b960d91b6064820152608490fd5b906110eb6110d784610e58565b6001600160a01b0393841693168314611070565b6001600160a01b03169081156111b157611117816001600160a01b0361111086610e58565b1614611070565b82600052600460205260406000206bffffffffffffffffffffffff60a01b8154169055806000526003602052604060002060001981540190558160005260036020526040600020600181540190558260005260026020526040600020826bffffffffffffffffffffffff60a01b8254161790557fddf252ad1be2c89b69c2b068fc378daa952ba7f163c4a11628f55a4df523b3ef600080a4565b60405162461bcd60e51b8152602060048201526024808201527f4552433732313a207472616e7366657220746f20746865207a65726f206164646044820152637265737360e01b6064820152608490fd5b60809060208152603260208201527f4552433732313a207472616e7366657220746f206e6f6e20455243373231526560408201527131b2b4bb32b91034b6b83632b6b2b73a32b960711b60608201520190565b919290803b15611378576112a593600060209460405196879586948593630a85bd0160e11b855233600486015260018060a01b031660248501526044840152608060648401526084830190610c4f565b03926001600160a01b03165af1809160009161132e575b5090611318573d15611311573d6112d281610d16565b906112e06040519283610cf4565b81523d6000602083013e5b8051908161130c5760405162461bcd60e51b815280610ec260048201611202565b602001fd5b60606112eb565b6001600160e01b031916630a85bd0160e11b1490565b6020813d602011611370575b8161134760209383610cf4565b8101031261136c5751906001600160e01b0319821682036113695750386112bc565b80fd5b5080fd5b3d915061133a565b5050505060019056fea26469706673582212208021aae50e1e2d7a246b53dd881989f8d0598cb184755e865de4a72c2b6ef9a764736f6c634300081c0033",
  "linkReferences": {},
  "deployedLinkReferences": {}
}