{
  "_format": "hh-sol-artifact-1",
  "contractName": "JINX",
  "sourceName": "contracts/NFT.sol",
  "abi": [
    {
      "inputs": [],
      "stateMutability": "nonpayable",
      "type": "constructor"
    },
    {
      "anonymous": false,
      "inputs": [
        {
          "indexed": true,
          "internalType": "address",
          "name": "owner",
          "type": "address"
        },
        {
          "indexed": true,
          "internalType": "address",
          "name": "approved",
          "type": "address"
        },
        {
          "indexed": true,
          "internalType": "uint256",
          "name": "tokenId",
          "type": "uint256"
        }
      ],
      "name": "Approval",
      "type": "event"
    },
    {
      "anonymous": false,
      "inputs": [
        {
          "indexed": true,
          "internalType": "address",
          "name": "owner",
          "type": "address"
        },
        {
          "indexed": true,
          "internalType": "address",
          "name": "operator",
          "type": "address"
        },
        {
          "indexed": false,
          "internalType": "bool",
          "name": "approved",
          "type": "bool"
        }
      ],
      "name": "ApprovalForAll",
      "type": "event"
    },
    {
      "anonymous": false,
      "inputs": [
        {
          "indexed": false,
          "internalType": "uint256",
          "name": "_fromTokenId",
          "type": "uint256"
        },
        {
          "indexed": false,
          "internalType": "uint256",
          "name": "_toTokenId",
          "type": "uint256"
        }
      ],
      "name": "BatchMetadataUpdate",
      "type": "event"
    },
    {
      "anonymous": false,
      "inputs": [
        {
          "indexed": false,
          "internalType": "uint256",
          "name": "_tokenId",
          "type": "uint256"
        }
      ],
      "name": "MetadataUpdate",
      "type": "event"
    },
    {
      "anonymous": false,
      "inputs": [
        {
          "indexed": true,
          "internalType": "address",
          "name": "from",
          "type": "address"
        },
        {
          "indexed": true,
          "internalType": "address",
          "name": "to",
          "type": "address"
        },
        {
          "indexed": true,
          "internalType": "uint256",
          "name": "tokenId",
          "type": "uint256"
        }
      ],
      "name": "Transfer",
      "type": "event"
    },
    {
      "inputs": [
        {
          "internalType": "address",
          "name": "to",
          "type": "address"
        },
        {
          "internalType": "uint256",
          "name": "tokenId",
          "type": "uint256"
        }
      ],
      "name": "approve",
      "outputs": [],
      "stateMutability": "nonpayable",
      "type": "function"
    },
    {
      "inputs": [
        {
          "internalType": "address",
          "name": "owner",
          "type": "address"
        }
      ],
      "name": "balanceOf",
      "outputs": [
        {
          "internalType": "uint256",
          "name": "",
          "type": "uint256"
        }
      ],
      "stateMutability": "view",
      "type": "function"
    },
    {
      "inputs": [
        {
          "internalType": "uint256",
          "name": "tokenId",
          "type": "uint256"
        }
      ],
      "name": "getApproved",
      "outputs": [
        {
          "internalType": "address",
          "name": "",
          "type": "address"
        }
      ],
      "stateMutability": "view",
      "type": "function"
    },
    {
      "inputs": [
        {
          "internalType": "address",
          "name": "owner",
          "type": "address"
        },
        {
          "internalType": "address",
          "name": "operator",
          "type": "address"
        }
      ],
      "name": "isApprovedForAll",
      "outputs": [
        {
          "internalType": "bool",
          "name": "",
          "type": "bool"
        }
      ],
      "stateMutability": "view",
      "type": "function"
    },
    {
      "inputs": [],
      "name": "mintNFT",
      "outputs": [
        {
          "internalType": "uint256",
          "name": "",
          "type": "uint256"
        }
      ],
      "stateMutability": "nonpayable",
      "type": "function"
    },
    {
      "inputs": [],
      "name": "name",
      "outputs": [
        {
          "internalType": "string",
          "name": "",
          "type": "string"
        }
      ],
      "stateMutability": "view",
      "type": "function"
    },
    {
      "inputs": [
        {
          "internalType": "uint256",
          "name": "tokenId",
          "type": "uint256"
        }
      ],
      "name": "ownerOf",
      "outputs": [
        {
          "internalType": "address",
          "name": "",
          "type": "address"
        }
      ],
      "stateMutability": "view",
      "type": "function"
    },
    {
      "inputs": [
        {
          "internalType": "address",
          "name": "from",
          "type": "address"
        },
        {
          "internalType": "address",
          "name": "to",
          "type": "address"
        },
        {
          "internalType": "uint256",
          "name": "tokenId",
          "type": "uint256"
        }
      ],
      "name": "safeTransferFrom",
      "outputs": [],
      "stateMutability": "nonpayable",
      "type": "function"
    },
    {
      "inputs": [
        {
          "internalType": "address",
          "name": "from",
          "type": "address"
        },
        {
          "internalType": "address",
          "name": "to",
          "type": "address"
        },
        {
          "internalType": "uint256",
          "name": "tokenId",
          "type": "uint256"
        },
        {
          "internalType": "bytes",
          "name": "data",
          "type": "bytes"
        }
      ],
      "name": "safeTransferFrom",
      "outputs": [],
      "stateMutability": "nonpayable",
      "type": "function"
    },
    {
      "inputs": [
        {
          "internalType": "address",
          "name": "operator",
          "type": "address"
        },
        {
          "internalType": "bool",
          "name": "approved",
          "type": "bool"
        }
      ],
      "name": "setApprovalForAll",
      "outputs": [],
      "stateMutability": "nonpayable",
      "type": "function"
    },
    {
      "inputs": [
        {
          "internalType": "bytes4",
          "name": "interfaceId",
          "type": "bytes4"
        }
      ],
      "name": "supportsInterface",
      "outputs": [
        {
          "internalType": "bool",
          "name": "",
          "type": "bool"
        }
      ],
      "stateMutability": "view",
      "type": "function"
    },
    {
      "inputs": [],
      "name": "symbol",
      "outputs": [
        {
          "internalType": "string",
          "name": "",
          "type": "string"
        }
      ],
      "stateMutability": "view",
      "type": "function"
    },
    {
      "inputs": [
        {
          "internalType": "uint256",
          "name": "tokenId",
          "type": "uint256"
        }
      ],
      "name": "tokenURI",
      "outputs": [
        {
          "internalType": "string",
          "name": "",
          "type": "string"
        }
      ],
      "stateMutability": "view",
      "type": "function"
    },
    {
      "inputs": [
        {
          "internalType": "address",
          "name": "from",
          "type": "address"
        },
        {
          "internalType": "address",
          "name": "to",
          "type": "address"
        },
        {
          "internalType": "uint256",
          "name": "tokenId",
          "type": "uint256"
        }
      ],
      "name": "transferFrom",
      "outputs": [],
      "stateMutability": "nonpayable",
      "type": "function"
    }
  ],
  "bytecode": "0x60806040523461075d57604051610017604082610762565b6004815263094929cb60e31b6020820152604051610036604082610762565b60038152620949cb60eb1b602082015281516001600160401b0381116104d657600054600181811c91168015610753575b60208210146104b657601f81116106ef575b50602092601f821160011461068b5792819293600092610680575b50508160011b916000199060031b1c1916176000555b80516001600160401b0381116104d657600154600181811c91168015610676575b60208210146104b657601f8111610611575b50602091601f82116001146105ad579181926000926105a2575b50508160011b916000199060031b1c1916176001555b600754600019811461058c576001018060075533156105485760008181526002602052604090205461014b906001600160a01b031615155b15610785565b60008181526002602052604090205461016e906001600160a01b03161515610145565b33600052600360205260406000206001815401905580600052600260205260406000203360018060a01b0319825416179055803360007fddf252ad1be2c89b69c2b068fc378daa952ba7f163c4a11628f55a4df523b3ef8180a4604051906101d760a083610762565b606d82527f68747470733a2f2f667563687369612d6d616e792d626561722d3936392e6d7960208301527f70696e6174612e636c6f75642f697066732f6261666b7265696432707769373360408301527f717378617a68757a76676a75373274706e62787161716878777074796e72356d60608301526c74726f6b70327834366633347160981b608083015261028281600052600260205260018060a01b0360406000205416151590565b156104ec57600081815260066020526040902082516001600160401b0381116104d6578154600181811c911680156104cc575b60208210146104b657601f811161046e575b506020601f821160011461040957819293946000926103fe575b50508160011b916000199060031b1c19161790555b7ff8e1a15aba9398e019f0b49df1a4fde98ee17ae345cb5f6b5e2c27f5033e8ce76020604051838152a16040519061032f606083610762565b602382527f546865204e465420494420257320686173206265656e206d696e74656420746f60208301526220257360e81b6040830152604051602081019163038fd88960e31b83526060602483015283519081608484015260005b8281106103e85760008086866103c860a4828989878483850101526044830152336064830152601f801991011681010301601f198101835282610762565b51906a636f6e736f6c652e6c6f675afa5060405161130d90816107d28239f35b80602080928801015160a482870101520161038a565b0151905038806102e1565b601f1982169083600052806000209160005b8181106104565750958360019596971061043d575b505050811b0190556102f6565b015160001960f88460031b161c19169055388080610430565b9192602060018192868b01518155019401920161041b565b826000526020600020601f830160051c810191602084106104ac575b601f0160051c01905b8181106104a057506102c7565b60008155600101610493565b909150819061048a565b634e487b7160e01b600052602260045260246000fd5b90607f16906102b5565b634e487b7160e01b600052604160045260246000fd5b60405162461bcd60e51b815260206004820152602e60248201527f45524337323155524953746f726167653a2055524920736574206f66206e6f6e60448201526d32bc34b9ba32b73a103a37b5b2b760911b6064820152608490fd5b606460405162461bcd60e51b815260206004820152602060248201527f4552433732313a206d696e7420746f20746865207a65726f20616464726573736044820152fd5b634e487b7160e01b600052601160045260246000fd5b0151905038806100f7565b601f198216926001600052806000209160005b8581106105f9575083600195106105e0575b505050811b0160015561010d565b015160001960f88460031b161c191690553880806105d2565b919260206001819286850151815501940192016105c0565b60016000527fb10e2d527612073b26eecdfd717e6a320cf44b4afac2b0732d9fcbe2b7fa0cf6601f830160051c8101916020841061066c575b601f0160051c01905b81811061066057506100dd565b60008155600101610653565b909150819061064a565b90607f16906100cb565b015190503880610094565b601f1982169360008052806000209160005b8681106106d757508360019596106106be575b505050811b016000556100aa565b015160001960f88460031b161c191690553880806106b0565b9192602060018192868501518155019401920161069d565b600080527f290decd9548b62a8d60345a988386fc84ba6bc95484008f6362f93160ef3e563601f830160051c81019160208410610749575b601f0160051c01905b81811061073d5750610079565b60008155600101610730565b9091508190610727565b90607f1690610067565b600080fd5b601f909101601f19168101906001600160401b038211908210176104d657604052565b1561078c57565b60405162461bcd60e51b815260206004820152601c60248201527f4552433732313a20746f6b656e20616c7265616479206d696e746564000000006044820152606490fdfe608080604052600436101561001357600080fd5b60003560e01c90816301ffc9a714610b205750806306fdde0314610a7b578063081812fc14610a5d578063095ea7b3146108d457806314f710fe1461049557806323b872dd1461046c57806342842e0e146104425780636352211e1461041257806370a082311461037b57806395d89b41146102ad578063a22cb465146101db578063b88d4fde14610150578063c87b56dd146101195763e985e9c5146100b957600080fd5b34610114576040366003190112610114576100d2610be4565b6100da610bfa565b9060018060a01b0316600052600560205260406000209060018060a01b0316600052602052602060ff604060002054166040519015158152f35b600080fd5b346101145760203660031901126101145761014c610138600435610e1c565b604051918291602083526020830190610ba5565b0390f35b3461011457608036600319011261011457610169610be4565b610171610bfa565b6064359167ffffffffffffffff831161011457366023840112156101145782600401359161019e83610c6c565b926101ac6040519485610c4a565b80845236602482870101116101145760208160009260246101d99801838801378501015260443591610dd4565b005b34610114576040366003190112610114576101f4610be4565b60243590811515809203610114576001600160a01b03169033821461026857336000526005602052604060002082600052602052604060002060ff1981541660ff83161790556040519081527f17307eab39ab6107e8899845ad3d59bd9653f200f220920489ca2b5937696c3160203392a3005b60405162461bcd60e51b815260206004820152601960248201527f4552433732313a20617070726f766520746f2063616c6c6572000000000000006044820152606490fd5b346101145760003660031901126101145760405160006001546102cf81610c88565b808452906001811690811561035757506001146102f7575b61014c8361013881850382610c4a565b91905060016000527fb10e2d527612073b26eecdfd717e6a320cf44b4afac2b0732d9fcbe2b7fa0cf6916000905b80821061033d575090915081016020016101386102e7565b919260018160209254838588010152019101909291610325565b60ff191660208086019190915291151560051b8401909101915061013890506102e7565b34610114576020366003190112610114576001600160a01b0361039c610be4565b1680156103bb5760005260036020526020604060002054604051908152f35b60405162461bcd60e51b815260206004820152602960248201527f4552433732313a2061646472657373207a65726f206973206e6f7420612076616044820152683634b21037bbb732b960b91b6064820152608490fd5b34610114576020366003190112610114576020610430600435610dae565b6040516001600160a01b039091168152f35b34610114576101d961045336610c10565b9060405192610463602085610c4a565b60008452610dd4565b34610114576101d961047d36610c10565b9161049061048b8433610f4d565b610d00565b611020565b346101145760003660031901126101145760075460001981146108be5760010180600755331561087a576000818152600260205260409020546104e4906001600160a01b031615155b15610f01565b600081815260026020526040902054610507906001600160a01b031615156104de565b336000818152600360209081526040808320805460010190558483526002909152812080546001600160a01b031916831790558291907fddf252ad1be2c89b69c2b068fc378daa952ba7f163c4a11628f55a4df523b3ef8180a460405161056f60a082610c4a565b606d81527f68747470733a2f2f667563687369612d6d616e792d626561722d3936392e6d7960208201527f70696e6174612e636c6f75642f697066732f6261666b7265696432707769373360408201527f717378617a68757a76676a75373274706e62787161716878777074796e72356d60608201526c74726f6b70327834366633347160981b608082015261061a82600052600260205260018060a01b0360406000205416151590565b1561081e5781600052600660205260406000209181519267ffffffffffffffff84116108085761064a8154610c88565b93601f85116107c0575b602094508493601f821160011461075d579381929394600092610752575b50508160011b916000199060031b1c19161790555b7ff8e1a15aba9398e019f0b49df1a4fde98ee17ae345cb5f6b5e2c27f5033e8ce782604051838152a16000806040516106c1606082610c4a565b602381527f546865204e465420494420257320686173206265656e206d696e74656420746f858201526220257360e81b60408201526040516107398161071f8882019463038fd88960e31b8652606060248401526084830190610ba5565b87604483015233606483015203601f198101835282610c4a565b51906a636f6e736f6c652e6c6f675afa50604051908152f35b015190508580610672565b601f1982169483600052806000209160005b8781106107a9575083600195969710610790575b505050811b019055610687565b015160001960f88460031b161c19169055858080610783565b91928860018192868501518155019401920161076f565b816000526020600020601f820160051c810195602083106107fe575b601f0160051c01945b8581106107f25750610654565b600081556001016107e5565b90955085906107dc565b634e487b7160e01b600052604160045260246000fd5b60405162461bcd60e51b815260206004820152602e60248201527f45524337323155524953746f726167653a2055524920736574206f66206e6f6e60448201526d32bc34b9ba32b73a103a37b5b2b760911b6064820152608490fd5b606460405162461bcd60e51b815260206004820152602060248201527f4552433732313a206d696e7420746f20746865207a65726f20616464726573736044820152fd5b634e487b7160e01b600052601160045260246000fd5b34610114576040366003190112610114576108ed610be4565b602435906001600160a01b0361090283610dae565b6001600160a01b039092169116818114610a0e578033149081156109e9575b501561097e57600082815260046020526040902080546001600160a01b031916821790556001600160a01b0361095683610dae565b167f8c5be1e5ebec7d5bd14f71427d1e84f3dd0314c0f7b2291e5b200ac8c7c3b925600080a4005b60405162461bcd60e51b815260206004820152603d60248201527f4552433732313a20617070726f76652063616c6c6572206973206e6f7420746f60448201527f6b656e206f776e6572206f7220617070726f76656420666f7220616c6c0000006064820152608490fd5b600090815260056020908152604080832033845290915290205460ff16905083610921565b60405162461bcd60e51b815260206004820152602160248201527f4552433732313a20617070726f76616c20746f2063757272656e74206f776e656044820152603960f91b6064820152608490fd5b34610114576020366003190112610114576020610430600435610cc2565b346101145760003660031901126101145760405160008054610a9c81610c88565b80845290600181169081156103575750600114610ac35761014c8361013881850382610c4a565b60008080527f290decd9548b62a8d60345a988386fc84ba6bc95484008f6362f93160ef3e563939250905b808210610b06575090915081016020016101386102e7565b919260018160209254838588010152019101909291610aee565b34610114576020366003190112610114576004359063ffffffff60e01b821680920361011457602091632483248360e11b8114908115610b62575b5015158152f35b6380ac58cd60e01b811491508115610b94575b8115610b83575b5083610b5b565b6301ffc9a760e01b14905083610b7c565b635b5e139f60e01b81149150610b75565b919082518082526020808301940160005b828110610bd4575050600081602094950152601f8019910116010190565b8181015186820152602001610bb6565b600435906001600160a01b038216820361011457565b602435906001600160a01b038216820361011457565b6060906003190112610114576004356001600160a01b038116810361011457906024356001600160a01b0381168103610114579060443590565b90601f8019910116810190811067ffffffffffffffff82111761080857604052565b67ffffffffffffffff811161080857601f01601f191660200190565b90600182811c92168015610cb8575b6020831014610ca257565b634e487b7160e01b600052602260045260246000fd5b91607f1691610c97565b600081815260026020526040902054610ce5906001600160a01b03161515610d62565b6000908152600460205260409020546001600160a01b031690565b15610d0757565b60405162461bcd60e51b815260206004820152602d60248201527f4552433732313a2063616c6c6572206973206e6f7420746f6b656e206f776e6560448201526c1c881bdc88185c1c1c9bdd9959609a1b6064820152608490fd5b15610d6957565b60405162461bcd60e51b815260206004820152601860248201527f4552433732313a20696e76616c696420746f6b656e20494400000000000000006044820152606490fd5b6000908152600260205260409020546001600160a01b0316610dd1811515610d62565b90565b90610df8939291610de861048b8433610f4d565b610df3838383611020565b6111ab565b15610dff57565b60405162461bcd60e51b815280610e1860048201611158565b0390fd5b600081815260026020526040902054610e3f906001600160a01b03161515610d62565b6000526006602052604060002060405190816000825492610e5f84610c88565b8084529360018116908115610edf5750600114610e98575b50610e8492500382610c4a565b6000604051610e94602082610c4a565b5290565b90506000929192526020600020906000915b818310610ec3575050906020610e849282010138610e77565b6020919350806001915483858801015201910190918392610eaa565b905060209250610e8494915060ff191682840152151560051b82010138610e77565b15610f0857565b60405162461bcd60e51b815260206004820152601c60248201527f4552433732313a20746f6b656e20616c7265616479206d696e746564000000006044820152606490fd5b906001600160a01b03610f5f82610dae565b6001600160a01b0390931692168281149291908315610f9f575b508215610f8557505090565b9091506001600160a01b0390610f9a90610cc2565b161490565b909250600052600560205260406000208160005260205260ff604060002054169138610f79565b15610fcd57565b60405162461bcd60e51b815260206004820152602560248201527f4552433732313a207472616e736665722066726f6d20696e636f72726563742060448201526437bbb732b960d91b6064820152608490fd5b9061104161102d84610dae565b6001600160a01b0393841693168314610fc6565b6001600160a01b03169081156111075761106d816001600160a01b0361106686610dae565b1614610fc6565b82600052600460205260406000206bffffffffffffffffffffffff60a01b8154169055806000526003602052604060002060001981540190558160005260036020526040600020600181540190558260005260026020526040600020826bffffffffffffffffffffffff60a01b8254161790557fddf252ad1be2c89b69c2b068fc378daa952ba7f163c4a11628f55a4df523b3ef600080a4565b60405162461bcd60e51b8152602060048201526024808201527f4552433732313a207472616e7366657220746f20746865207a65726f206164646044820152637265737360e01b6064820152608490fd5b60809060208152603260208201527f4552433732313a207472616e7366657220746f206e6f6e20455243373231526560408201527131b2b4bb32b91034b6b83632b6b2b73a32b960711b60608201520190565b919290803b156112ce576111fb93600060209460405196879586948593630a85bd0160e11b855233600486015260018060a01b031660248501526044840152608060648401526084830190610ba5565b03926001600160a01b03165af18091600091611284575b509061126e573d15611267573d61122881610c6c565b906112366040519283610c4a565b81523d6000602083013e5b805190816112625760405162461bcd60e51b815280610e1860048201611158565b602001fd5b6060611241565b6001600160e01b031916630a85bd0160e11b1490565b6020813d6020116112c6575b8161129d60209383610c4a565b810103126112c25751906001600160e01b0319821682036112bf575038611212565b80fd5b5080fd5b3d9150611290565b5050505060019056fea26469706673582212207545bdf09e1fc24aa7d591a41085f0a14fcb9268ed3f14a7d9fc9964214fb36d64736f6c634300081c0033",
  "linkReferences": {},
  "deployedLinkReferences": {}
}