{
  "_format": "hh-sol-artifact-1",
  "contractName": "LearningHub",
  "sourceName": "contracts/LearningHub.sol",
  "abi": [
    {
      "inputs": [],
      "stateMutability": "nonpayable",
      "type": "constructor"
    },
    {
      "anonymous": false,
      "inputs": [
        {
          "indexed": true,
          "internalType": "address",
          "name": "student",
          "type": "address"
        },
        {
          "indexed": false,
          "internalType": "uint256",
          "name": "coursesCompleted",
          "type": "uint256"
        },
        {
          "indexed": false,
          "internalType": "enum LearningHub.Badge",
          "name": "badge",
          "type": "uint8"
        }
      ],
      "name": "CourseCompleted",
      "type": "event"
    },
    {
      "anonymous": false,
      "inputs": [
        {
          "indexed": true,
          "internalType": "address",
          "name": "student",
          "type": "address"
        },
        {
          "indexed": false,
          "internalType": "string",
          "name": "name",
          "type": "string"
        }
      ],
      "name": "Enrolled",
      "type": "event"
    },
    {
      "anonymous": false,
      "inputs": [
        {
          "indexed": true,
          "internalType": "address",
          "name": "depositor",
          "type": "address"
        },
        {
          "indexed": false,
          "internalType": "uint256",
          "name": "amount",
          "type": "uint256"
        }
      ],
      "name": "FundsDeposited",
      "type": "event"
    },
    {
      "anonymous": false,
      "inputs": [
        {
          "indexed": true,
          "internalType": "address",
          "name": "owner",
          "type": "address"
        },
        {
          "indexed": false,
          "internalType": "uint256",
          "name": "amount",
          "type": "uint256"
        }
      ],
      "name": "FundsWithdrawn",
      "type": "event"
    },
    {
      "inputs": [],
      "name": "FundDapp",
      "outputs": [],
      "stateMutability": "payable",
      "type": "function"
    },
    {
      "inputs": [],
      "name": "completeCourse",
      "outputs": [],
      "stateMutability": "nonpayable",
      "type": "function"
    },
    {
      "inputs": [
        {
          "internalType": "string",
          "name": "_name",
          "type": "string"
        },
        {
          "internalType": "uint8",
          "name": "_age",
          "type": "uint8"
        }
      ],
      "name": "enroll",
      "outputs": [],
      "stateMutability": "nonpayable",
      "type": "function"
    },
    {
      "inputs": [
        {
          "internalType": "address",
          "name": "_student",
          "type": "address"
        }
      ],
      "name": "getStudentDetails",
      "outputs": [
        {
          "internalType": "string",
          "name": "",
          "type": "string"
        },
        {
          "internalType": "uint8",
          "name": "",
          "type": "uint8"
        },
        {
          "internalType": "enum LearningHub.Badge",
          "name": "",
          "type": "uint8"
        },
        {
          "internalType": "uint256",
          "name": "",
          "type": "uint256"
        }
      ],
      "stateMutability": "view",
      "type": "function"
    },
    {
      "inputs": [],
      "name": "greetings",
      "outputs": [
        {
          "internalType": "string",
          "name": "",
          "type": "string"
        }
      ],
      "stateMutability": "view",
      "type": "function"
    },
    {
      "inputs": [],
      "name": "owner",
      "outputs": [
        {
          "internalType": "address",
          "name": "",
          "type": "address"
        }
      ],
      "stateMutability": "view",
      "type": "function"
    },
    {
      "inputs": [
        {
          "internalType": "address",
          "name": "",
          "type": "address"
        }
      ],
      "name": "students",
      "outputs": [
        {
          "internalType": "string",
          "name": "name",
          "type": "string"
        },
        {
          "internalType": "uint8",
          "name": "age",
          "type": "uint8"
        },
        {
          "internalType": "enum LearningHub.Badge",
          "name": "badge",
          "type": "uint8"
        },
        {
          "internalType": "uint256",
          "name": "coursesCompleted",
          "type": "uint256"
        }
      ],
      "stateMutability": "view",
      "type": "function"
    },
    {
      "inputs": [
        {
          "internalType": "address",
          "name": "_receiver",
          "type": "address"
        },
        {
          "internalType": "uint256",
          "name": "amount",
          "type": "uint256"
        }
      ],
      "name": "transfer",
      "outputs": [],
      "stateMutability": "payable",
      "type": "function"
    },
    {
      "inputs": [
        {
          "internalType": "string",
          "name": "_greetings",
          "type": "string"
        }
      ],
      "name": "updateGreeting",
      "outputs": [
        {
          "internalType": "string",
          "name": "",
          "type": "string"
        }
      ],
      "stateMutability": "nonpayable",
      "type": "function"
    },
    {
      "inputs": [
        {
          "internalType": "uint256",
          "name": "_amount",
          "type": "uint256"
        }
      ],
      "name": "withdrawFunding",
      "outputs": [],
      "stateMutability": "nonpayable",
      "type": "function"
    }
  ],
  "bytecode": "0x6080806040523460d157600054600181811c9116801560c8575b602082101460b257601f8111606c575b507f48656c6c6f20536f6c696469747900000000000000000000000000000000001c600055600380546001600160a01b03191633179055610c8990816100d78239f35b60008052601f0160051c7f290decd9548b62a8d60345a988386fc84ba6bc95484008f6362f93160ef3e563908101905b81811060a757506029565b60008155600101609c565b634e487b7160e01b600052602260045260246000fd5b90607f16906019565b600080fdfe6080604052600436101561001257600080fd5b60003560e01c80632867cc44146108205780632e18eaff146107915780633697f0551461066c5780636aaf09c7146103a05780637795a63c1461026e5780638da5cb5b14610245578063a6c807a9146101e9578063a9059cbb14610121578063acb34ce8146100f15763d0b371bd1461008a57600080fd5b346100ec5760203660031901126100ec576001600160a01b036100ab610a5c565b16600052600260205260406000206001810154906100e86100d0600283015492610b51565b9160405193849360ff808360081c1692169085610c00565b0390f35b600080fd5b346100ec5760003660031901126100ec576100e861010d610aac565b604051918291602083526020830190610a1b565b60403660031901126100ec57610135610a5c565b60243590813411156101b657600080809381935af13d156101b1573d61015a816109b8565b906101686040519283610996565b8152600060203d92013e5b1561017a57005b60405162461bcd60e51b815260206004820152600f60248201526e151c985b9cd9995c8819985a5b1959608a1b6044820152606490fd5b610173565b60405162461bcd60e51b815260206004820152600b60248201526a4e6f7420456e6f7567682160a81b6044820152606490fd5b346100ec5760203660031901126100ec576001600160a01b0361020a610a5c565b166000526002602052604060002061022181610b51565b6100e86002600184015493015460405193849360ff808360081c1692169085610c00565b346100ec5760003660031901126100ec576003546040516001600160a01b039091168152602090f35b346100ec5760003660031901126100ec5733600052600260205260406000206102978154610a72565b1561036457600281018054906001820180921161034e578181556102ed9160ff91600191600a81106103155750848201805461ff0019166103001790555b5493015460081c166040519283526020830190610bf3565b7fea95f19ea1b88aa433bc407a2d341ba796e6fb2eba8e87ec7412cb5292bbb80a60403392a2005b600581106103335750848201805461ff0019166102001790556102d5565b82116102d557848201805461ff0019166101001790556102d5565b634e487b7160e01b600052601160045260246000fd5b60405162461bcd60e51b815260206004820152601460248201527314dd1d59195b9d081b9bdd08195b9c9bdb1b195960621b6044820152606490fd5b346100ec5760403660031901126100ec5760043567ffffffffffffffff81116100ec576103d19036906004016109d4565b60243560ff81168091036100ec578151156106305780156105eb57604051906080820182811067ffffffffffffffff8211176105d5576040528282526020820190815260408201600081526060830190600082523360005260026020526040600020935180519067ffffffffffffffff82116105d55781906104538754610a72565b601f8111610582575b50602090601f831160011461051d57600092610512575b50508160011b916000199060031b1c19161784555b60ff6001850193511660ff19845416178355519160048310156104fc5760029261ff0082549160081b169061ff001916179055519101557faff7cc483474af47a4f10a113769fab99ab00b1db774daa5d77669eb7d70860460405160208152806104f733946020830190610a1b565b0390a2005b634e487b7160e01b600052602160045260246000fd5b015190508780610473565b60008881528281209350601f198516905b81811061056a5750908460019594939210610551575b505050811b018455610488565b015160001960f88460031b161c19169055878080610544565b9293602060018192878601518155019501930161052e565b909150866000526020600020601f840160051c810191602085106105cb575b90601f859493920160051c01905b8181106105bc575061045c565b600081558493506001016105af565b90915081906105a1565b634e487b7160e01b600052604160045260246000fd5b60405162461bcd60e51b815260206004820152601a60248201527f416765206d7573742062652067726561746572207468616e20300000000000006044820152606490fd5b60405162461bcd60e51b81526020600482015260146024820152734e616d652063616e6e6f7420626520656d70747960601b6044820152606490fd5b346100ec5760203660031901126100ec57600354600435906001600160a01b03163381900361073d5747821161070157600080808481948282156106f8575bf1156106ec576003546040519182526001600160a01b0316907feaff4b37086828766ad3268786972c0cd24259d4c87a80f9d3963a3c3d999b0d90602090a2005b6040513d6000823e3d90fd5b506108fc6106ab565b60405162461bcd60e51b8152602060048201526014602482015273496e73756666696369656e742062616c616e636560601b6044820152606490fd5b60405162461bcd60e51b815260206004820152602660248201527f4f6e6c7920746865206f776e65722063616e20706572666f726d20746869732060448201526530b1ba34b7b760d11b6064820152608490fd5b60003660031901126100ec5734156107d1576040513481527f543ba50a5eec5e6178218e364b1d0f396157b3c8fa278522c2cb7fd99407d47460203392a2005b60405162461bcd60e51b815260206004820152602160248201527f4465706f736974206d7573742062652067726561746572207468616e207a65726044820152606f60f81b6064820152608490fd5b346100ec5760203660031901126100ec5760043567ffffffffffffffff81116100ec576108519036906004016109d4565b805167ffffffffffffffff81116105d55761086d600054610a72565b601f811161092a575b50602091601f82116001146108bc579181926000926108b1575b50508160011b916000199060031b1c1916176000555b6100e861010d610aac565b015190508280610890565b601f1982169260008052600080516020610c348339815191529160005b858110610912575083600195106108f9575b505050811b016000556108a6565b015160001960f88460031b161c191690558280806108eb565b919260206001819286850151815501940192016108d9565b60008052601f820160051c600080516020610c34833981519152019060208310610980575b601f0160051c600080516020610c3483398151915201905b8181106109745750610876565b60008155600101610967565b600080516020610c34833981519152915061094f565b90601f8019910116810190811067ffffffffffffffff8211176105d557604052565b67ffffffffffffffff81116105d557601f01601f191660200190565b81601f820112156100ec578035906109eb826109b8565b926109f96040519485610996565b828452602083830101116100ec57816000926020809301838601378301015290565b919082519283825260005b848110610a47575050826000602080949584010152601f8019910116010190565b80602080928401015182828601015201610a26565b600435906001600160a01b03821682036100ec57565b90600182811c92168015610aa2575b6020831014610a8c57565b634e487b7160e01b600052602260045260246000fd5b91607f1691610a81565b6040519060008260005491610ac083610a72565b8083529260018116908115610b325750600114610ae6575b610ae492500383610996565b565b5060008080529091600080516020610c348339815191525b818310610b16575050906020610ae492820101610ad8565b6020919350806001915483858901015201910190918492610afe565b60209250610ae494915060ff191682840152151560051b820101610ad8565b9060405191826000825492610b6584610a72565b8084529360018116908115610bd15750600114610b8a575b50610ae492500383610996565b90506000929192526020600020906000915b818310610bb5575050906020610ae49282010138610b7d565b6020919350806001915483858901015201910190918492610b9c565b905060209250610ae494915060ff191682840152151560051b82010138610b7d565b9060048210156104fc5752565b9060609295949360ff610c1e610c2f93608086526080860190610a1b565b971660208401526040830190610bf3565b015256fe290decd9548b62a8d60345a988386fc84ba6bc95484008f6362f93160ef3e563a2646970667358221220cb99e77346c18c9e1da25026c42e3411b630d4897935eb007521661180c5db2f64736f6c634300081c0033",
  "linkReferences": {},
  "deployedLinkReferences": {}
}